{
	"_format": "hh-sol-artifact-1",
	"contractName": "TheStripesNFT",
	"sourceName": "contracts/TheStripesNFT.sol",
	"abi": [
		{
			"inputs": [
				{
					"internalType": "string",
					"name": "_name",
					"type": "string"
				},
				{
					"internalType": "string",
					"name": "_symbol",
					"type": "string"
				},
				{
					"internalType": "string",
					"name": "_initBaseURI",
					"type": "string"
				}
			],
			"stateMutability": "nonpayable",
			"type": "constructor"
		},
		{
			"anonymous": false,
			"inputs": [
				{
					"indexed": true,
					"internalType": "address",
					"name": "owner",
					"type": "address"
				},
				{
					"indexed": true,
					"internalType": "address",
					"name": "approved",
					"type": "address"
				},
				{
					"indexed": true,
					"internalType": "uint256",
					"name": "tokenId",
					"type": "uint256"
				}
			],
			"name": "Approval",
			"type": "event"
		},
		{
			"anonymous": false,
			"inputs": [
				{
					"indexed": true,
					"internalType": "address",
					"name": "owner",
					"type": "address"
				},
				{
					"indexed": true,
					"internalType": "address",
					"name": "operator",
					"type": "address"
				},
				{
					"indexed": false,
					"internalType": "bool",
					"name": "approved",
					"type": "bool"
				}
			],
			"name": "ApprovalForAll",
			"type": "event"
		},
		{
			"anonymous": false,
			"inputs": [
				{
					"indexed": true,
					"internalType": "address",
					"name": "previousOwner",
					"type": "address"
				},
				{
					"indexed": true,
					"internalType": "address",
					"name": "newOwner",
					"type": "address"
				}
			],
			"name": "OwnershipTransferred",
			"type": "event"
		},
		{
			"anonymous": false,
			"inputs": [
				{
					"indexed": true,
					"internalType": "address",
					"name": "from",
					"type": "address"
				},
				{
					"indexed": true,
					"internalType": "address",
					"name": "to",
					"type": "address"
				},
				{
					"indexed": true,
					"internalType": "uint256",
					"name": "tokenId",
					"type": "uint256"
				}
			],
			"name": "Transfer",
			"type": "event"
		},
		{
			"inputs": [
				{
					"internalType": "address[100]",
					"name": "_users",
					"type": "address[100]"
				}
			],
			"name": "add100PresaleUsers",
			"outputs": [],
			"stateMutability": "nonpayable",
			"type": "function"
		},
		{
			"inputs": [
				{
					"internalType": "address",
					"name": "_user",
					"type": "address"
				}
			],
			"name": "addPresaleUser",
			"outputs": [],
			"stateMutability": "nonpayable",
			"type": "function"
		},
		{
			"inputs": [
				{
					"internalType": "address",
					"name": "to",
					"type": "address"
				},
				{
					"internalType": "uint256",
					"name": "tokenId",
					"type": "uint256"
				}
			],
			"name": "approve",
			"outputs": [],
			"stateMutability": "nonpayable",
			"type": "function"
		},
		{
			"inputs": [
				{
					"internalType": "address",
					"name": "owner",
					"type": "address"
				}
			],
			"name": "balanceOf",
			"outputs": [
				{
					"internalType": "uint256",
					"name": "",
					"type": "uint256"
				}
			],
			"stateMutability": "view",
			"type": "function"
		},
		{
			"inputs": [],
			"name": "baseExtension",
			"outputs": [
				{
					"internalType": "string",
					"name": "",
					"type": "string"
				}
			],
			"stateMutability": "view",
			"type": "function"
		},
		{
			"inputs": [],
			"name": "baseURI",
			"outputs": [
				{
					"internalType": "string",
					"name": "",
					"type": "string"
				}
			],
			"stateMutability": "view",
			"type": "function"
		},
		{
			"inputs": [],
			"name": "cost",
			"outputs": [
				{
					"internalType": "uint256",
					"name": "",
					"type": "uint256"
				}
			],
			"stateMutability": "view",
			"type": "function"
		},
		{
			"inputs": [
				{
					"internalType": "uint256",
					"name": "tokenId",
					"type": "uint256"
				}
			],
			"name": "getApproved",
			"outputs": [
				{
					"internalType": "address",
					"name": "",
					"type": "address"
				}
			],
			"stateMutability": "view",
			"type": "function"
		},
		{
			"inputs": [
				{
					"internalType": "address",
					"name": "owner",
					"type": "address"
				},
				{
					"internalType": "address",
					"name": "operator",
					"type": "address"
				}
			],
			"name": "isApprovedForAll",
			"outputs": [
				{
					"internalType": "bool",
					"name": "",
					"type": "bool"
				}
			],
			"stateMutability": "view",
			"type": "function"
		},
		{
			"inputs": [],
			"name": "maxMintAmount",
			"outputs": [
				{
					"internalType": "uint256",
					"name": "",
					"type": "uint256"
				}
			],
			"stateMutability": "view",
			"type": "function"
		},
		{
			"inputs": [],
			"name": "maxSupply",
			"outputs": [
				{
					"internalType": "uint256",
					"name": "",
					"type": "uint256"
				}
			],
			"stateMutability": "view",
			"type": "function"
		},
		{
			"inputs": [
				{
					"internalType": "address",
					"name": "_to",
					"type": "address"
				},
				{
					"internalType": "uint256",
					"name": "_mintAmount",
					"type": "uint256"
				}
			],
			"name": "mint",
			"outputs": [],
			"stateMutability": "payable",
			"type": "function"
		},
		{
			"inputs": [],
			"name": "name",
			"outputs": [
				{
					"internalType": "string",
					"name": "",
					"type": "string"
				}
			],
			"stateMutability": "view",
			"type": "function"
		},
		{
			"inputs": [],
			"name": "owner",
			"outputs": [
				{
					"internalType": "address",
					"name": "",
					"type": "address"
				}
			],
			"stateMutability": "view",
			"type": "function"
		},
		{
			"inputs": [
				{
					"internalType": "uint256",
					"name": "tokenId",
					"type": "uint256"
				}
			],
			"name": "ownerOf",
			"outputs": [
				{
					"internalType": "address",
					"name": "",
					"type": "address"
				}
			],
			"stateMutability": "view",
			"type": "function"
		},
		{
			"inputs": [
				{
					"internalType": "bool",
					"name": "_state",
					"type": "bool"
				}
			],
			"name": "pause",
			"outputs": [],
			"stateMutability": "nonpayable",
			"type": "function"
		},
		{
			"inputs": [],
			"name": "paused",
			"outputs": [
				{
					"internalType": "bool",
					"name": "",
					"type": "bool"
				}
			],
			"stateMutability": "view",
			"type": "function"
		},
		{
			"inputs": [],
			"name": "presaleCost",
			"outputs": [
				{
					"internalType": "uint256",
					"name": "",
					"type": "uint256"
				}
			],
			"stateMutability": "view",
			"type": "function"
		},
		{
			"inputs": [
				{
					"internalType": "address",
					"name": "",
					"type": "address"
				}
			],
			"name": "presaleWallets",
			"outputs": [
				{
					"internalType": "bool",
					"name": "",
					"type": "bool"
				}
			],
			"stateMutability": "view",
			"type": "function"
		},
		{
			"inputs": [
				{
					"internalType": "address",
					"name": "_user",
					"type": "address"
				}
			],
			"name": "removePresaleUser",
			"outputs": [],
			"stateMutability": "nonpayable",
			"type": "function"
		},
		{
			"inputs": [
				{
					"internalType": "address",
					"name": "_user",
					"type": "address"
				}
			],
			"name": "removeWhitelistUser",
			"outputs": [],
			"stateMutability": "nonpayable",
			"type": "function"
		},
		{
			"inputs": [],
			"name": "renounceOwnership",
			"outputs": [],
			"stateMutability": "nonpayable",
			"type": "function"
		},
		{
			"inputs": [
				{
					"internalType": "address",
					"name": "from",
					"type": "address"
				},
				{
					"internalType": "address",
					"name": "to",
					"type": "address"
				},
				{
					"internalType": "uint256",
					"name": "tokenId",
					"type": "uint256"
				}
			],
			"name": "safeTransferFrom",
			"outputs": [],
			"stateMutability": "nonpayable",
			"type": "function"
		},
		{
			"inputs": [
				{
					"internalType": "address",
					"name": "from",
					"type": "address"
				},
				{
					"internalType": "address",
					"name": "to",
					"type": "address"
				},
				{
					"internalType": "uint256",
					"name": "tokenId",
					"type": "uint256"
				},
				{
					"internalType": "bytes",
					"name": "_data",
					"type": "bytes"
				}
			],
			"name": "safeTransferFrom",
			"outputs": [],
			"stateMutability": "nonpayable",
			"type": "function"
		},
		{
			"inputs": [
				{
					"internalType": "address",
					"name": "operator",
					"type": "address"
				},
				{
					"internalType": "bool",
					"name": "approved",
					"type": "bool"
				}
			],
			"name": "setApprovalForAll",
			"outputs": [],
			"stateMutability": "nonpayable",
			"type": "function"
		},
		{
			"inputs": [
				{
					"internalType": "string",
					"name": "_newBaseExtension",
					"type": "string"
				}
			],
			"name": "setBaseExtension",
			"outputs": [],
			"stateMutability": "nonpayable",
			"type": "function"
		},
		{
			"inputs": [
				{
					"internalType": "string",
					"name": "_newBaseURI",
					"type": "string"
				}
			],
			"name": "setBaseURI",
			"outputs": [],
			"stateMutability": "nonpayable",
			"type": "function"
		},
		{
			"inputs": [
				{
					"internalType": "bool",
					"name": "_status",
					"type": "bool"
				}
			],
			"name": "setBlindBoxOpened",
			"outputs": [],
			"stateMutability": "nonpayable",
			"type": "function"
		},
		{
			"inputs": [
				{
					"internalType": "uint256",
					"name": "_newCost",
					"type": "uint256"
				}
			],
			"name": "setCost",
			"outputs": [],
			"stateMutability": "nonpayable",
			"type": "function"
		},
		{
			"inputs": [
				{
					"internalType": "uint256",
					"name": "_newCost",
					"type": "uint256"
				}
			],
			"name": "setPresaleCost",
			"outputs": [],
			"stateMutability": "nonpayable",
			"type": "function"
		},
		{
			"inputs": [
				{
					"internalType": "uint256",
					"name": "_newmaxMintAmount",
					"type": "uint256"
				}
			],
			"name": "setmaxMintAmount",
			"outputs": [],
			"stateMutability": "nonpayable",
			"type": "function"
		},
		{
			"inputs": [
				{
					"internalType": "bytes4",
					"name": "interfaceId",
					"type": "bytes4"
				}
			],
			"name": "supportsInterface",
			"outputs": [
				{
					"internalType": "bool",
					"name": "",
					"type": "bool"
				}
			],
			"stateMutability": "view",
			"type": "function"
		},
		{
			"inputs": [],
			"name": "symbol",
			"outputs": [
				{
					"internalType": "string",
					"name": "",
					"type": "string"
				}
			],
			"stateMutability": "view",
			"type": "function"
		},
		{
			"inputs": [
				{
					"internalType": "uint256",
					"name": "index",
					"type": "uint256"
				}
			],
			"name": "tokenByIndex",
			"outputs": [
				{
					"internalType": "uint256",
					"name": "",
					"type": "uint256"
				}
			],
			"stateMutability": "view",
			"type": "function"
		},
		{
			"inputs": [
				{
					"internalType": "address",
					"name": "owner",
					"type": "address"
				},
				{
					"internalType": "uint256",
					"name": "index",
					"type": "uint256"
				}
			],
			"name": "tokenOfOwnerByIndex",
			"outputs": [
				{
					"internalType": "uint256",
					"name": "",
					"type": "uint256"
				}
			],
			"stateMutability": "view",
			"type": "function"
		},
		{
			"inputs": [
				{
					"internalType": "uint256",
					"name": "tokenId",
					"type": "uint256"
				}
			],
			"name": "tokenURI",
			"outputs": [
				{
					"internalType": "string",
					"name": "",
					"type": "string"
				}
			],
			"stateMutability": "view",
			"type": "function"
		},
		{
			"inputs": [],
			"name": "totalSupply",
			"outputs": [
				{
					"internalType": "uint256",
					"name": "",
					"type": "uint256"
				}
			],
			"stateMutability": "view",
			"type": "function"
		},
		{
			"inputs": [
				{
					"internalType": "address",
					"name": "from",
					"type": "address"
				},
				{
					"internalType": "address",
					"name": "to",
					"type": "address"
				},
				{
					"internalType": "uint256",
					"name": "tokenId",
					"type": "uint256"
				}
			],
			"name": "transferFrom",
			"outputs": [],
			"stateMutability": "nonpayable",
			"type": "function"
		},
		{
			"inputs": [
				{
					"internalType": "address",
					"name": "newOwner",
					"type": "address"
				}
			],
			"name": "transferOwnership",
			"outputs": [],
			"stateMutability": "nonpayable",
			"type": "function"
		},
		{
			"inputs": [
				{
					"internalType": "address",
					"name": "_owner",
					"type": "address"
				}
			],
			"name": "walletOfOwner",
			"outputs": [
				{
					"internalType": "uint256[]",
					"name": "",
					"type": "uint256[]"
				}
			],
			"stateMutability": "view",
			"type": "function"
		},
		{
			"inputs": [
				{
					"internalType": "address",
					"name": "_user",
					"type": "address"
				}
			],
			"name": "whitelistUser",
			"outputs": [],
			"stateMutability": "nonpayable",
			"type": "function"
		},
		{
			"inputs": [
				{
					"internalType": "address",
					"name": "",
					"type": "address"
				}
			],
			"name": "whitelisted",
			"outputs": [
				{
					"internalType": "bool",
					"name": "",
					"type": "bool"
				}
			],
			"stateMutability": "view",
			"type": "function"
		},
		{
			"inputs": [],
			"name": "withdraw",
			"outputs": [],
			"stateMutability": "payable",
			"type": "function"
		}
	],
	"bytecode": "0x60806040526000600a60146101000a81548160ff0219169083151502179055506040518060600160405280603581526020016200676460359139600b908162000049919062001157565b506040518060400160405280600581526020017f2e6a736f6e000000000000000000000000000000000000000000000000000000815250600d908162000090919062001157565b5066b1a2bc2ec50000600e55666a94d74f430000600f556103e060105560146011556000601260006101000a81548160ff021916908315150217905550348015620000da57600080fd5b5060405162006799380380620067998339818101604052810190620001009190620013a2565b8282816000908162000113919062001157565b50806001908162000125919062001157565b505050620001486200013c6200017560201b60201c565b6200017d60201b60201c565b62000159816200024360201b60201c565b6200016c336014620002e760201b60201c565b50505062001a23565b600033905090565b6000600a60009054906101000a900473ffffffffffffffffffffffffffffffffffffffff16905081600a60006101000a81548173ffffffffffffffffffffffffffffffffffffffff021916908373ffffffffffffffffffffffffffffffffffffffff1602179055508173ffffffffffffffffffffffffffffffffffffffff168173ffffffffffffffffffffffffffffffffffffffff167f8be0079c531659141344cd1fd0a4f28419497f9722a3daafe3b4186f6b6457e060405160405180910390a35050565b620002536200017560201b60201c565b73ffffffffffffffffffffffffffffffffffffffff1662000279620004d360201b60201c565b73ffffffffffffffffffffffffffffffffffffffff1614620002d2576040517f08c379a0000000000000000000000000000000000000000000000000000000008152600401620002c990620014bc565b60405180910390fd5b80600c9081620002e3919062001157565b5050565b6000620002f9620004fd60201b60201c565b9050601260009054906101000a900460ff16156200031657600080fd5b600082116200032457600080fd5b6011548211156200033457600080fd5b60105482826200034591906200150d565b11156200035157600080fd5b62000361620004d360201b60201c565b73ffffffffffffffffffffffffffffffffffffffff163373ffffffffffffffffffffffffffffffffffffffff1614620004895760011515601360003373ffffffffffffffffffffffffffffffffffffffff1673ffffffffffffffffffffffffffffffffffffffff16815260200190815260200160002060009054906101000a900460ff16151514620004885760011515601460003373ffffffffffffffffffffffffffffffffffffffff1673ffffffffffffffffffffffffffffffffffffffff16815260200190815260200160002060009054906101000a900460ff16151514620004695781600e5462000456919062001548565b3410156200046357600080fd5b62000487565b81600f5462000479919062001548565b3410156200048657600080fd5b5b5b5b6000600190505b828111620004cd57620004b7848284620004ab91906200150d565b6200050a60201b60201c565b8080620004c49062001593565b91505062000490565b50505050565b6000600a60009054906101000a900473ffffffffffffffffffffffffffffffffffffffff16905090565b6000600880549050905090565b6200052c8282604051806020016040528060008152506200053060201b60201c565b5050565b6200054283836200059e60201b60201c565b6200055760008484846200078360201b60201c565b62000599576040517f08c379a0000000000000000000000000000000000000000000000000000000008152600401620005909062001656565b60405180910390fd5b505050565b600073ffffffffffffffffffffffffffffffffffffffff168273ffffffffffffffffffffffffffffffffffffffff160362000610576040517f08c379a00000000000000000000000000000000000000000000000000000000081526004016200060790620016c8565b60405180910390fd5b62000621816200092c60201b60201c565b1562000664576040517f08c379a00000000000000000000000000000000000000000000000000000000081526004016200065b906200173a565b60405180910390fd5b62000678600083836200099860201b60201c565b6001600360008473ffffffffffffffffffffffffffffffffffffffff1673ffffffffffffffffffffffffffffffffffffffff1681526020019081526020016000206000828254620006ca91906200150d565b92505081905550816002600083815260200190815260200160002060006101000a81548173ffffffffffffffffffffffffffffffffffffffff021916908373ffffffffffffffffffffffffffffffffffffffff160217905550808273ffffffffffffffffffffffffffffffffffffffff16600073ffffffffffffffffffffffffffffffffffffffff167fddf252ad1be2c89b69c2b068fc378daa952ba7f163c4a11628f55a4df523b3ef60405160405180910390a45050565b6000620007b18473ffffffffffffffffffffffffffffffffffffffff1662000add60201b620022f01760201c565b156200091f578373ffffffffffffffffffffffffffffffffffffffff1663150b7a02620007e36200017560201b60201c565b8786866040518563ffffffff1660e01b81526004016200080794939291906200180f565b6020604051808303816000875af19250505080156200084657506040513d601f19601f82011682018060405250810190620008439190620018c0565b60015b620008ce573d806000811462000879576040519150601f19603f3d011682016040523d82523d6000602084013e6200087e565b606091505b506000815103620008c6576040517f08c379a0000000000000000000000000000000000000000000000000000000008152600401620008bd9062001656565b60405180910390fd5b805181602001fd5b63150b7a0260e01b7bffffffffffffffffffffffffffffffffffffffffffffffffffffffff1916817bffffffffffffffffffffffffffffffffffffffffffffffffffffffff19161491505062000924565b600190505b949350505050565b60008073ffffffffffffffffffffffffffffffffffffffff166002600084815260200190815260200160002060009054906101000a900473ffffffffffffffffffffffffffffffffffffffff1673ffffffffffffffffffffffffffffffffffffffff1614159050919050565b620009b083838362000af060201b620023031760201c565b600073ffffffffffffffffffffffffffffffffffffffff168373ffffffffffffffffffffffffffffffffffffffff1603620009fc57620009f68162000af560201b60201c565b62000a44565b8173ffffffffffffffffffffffffffffffffffffffff168373ffffffffffffffffffffffffffffffffffffffff161462000a435762000a42838262000b3e60201b60201c565b5b5b600073ffffffffffffffffffffffffffffffffffffffff168273ffffffffffffffffffffffffffffffffffffffff160362000a905762000a8a8162000cbb60201b60201c565b62000ad8565b8273ffffffffffffffffffffffffffffffffffffffff168273ffffffffffffffffffffffffffffffffffffffff161462000ad75762000ad6828262000d9760201b60201c565b5b5b505050565b600080823b905060008111915050919050565b505050565b6008805490506009600083815260200190815260200160002081905550600881908060018154018082558091505060019003906000526020600020016000909190919091505550565b6000600162000b588462000e2360201b620017921760201c565b62000b649190620018f2565b905060006007600084815260200190815260200160002054905081811462000c4a576000600660008673ffffffffffffffffffffffffffffffffffffffff1673ffffffffffffffffffffffffffffffffffffffff168152602001908152602001600020600084815260200190815260200160002054905080600660008773ffffffffffffffffffffffffffffffffffffffff1673ffffffffffffffffffffffffffffffffffffffff168152602001908152602001600020600084815260200190815260200160002081905550816007600083815260200190815260200160002081905550505b6007600084815260200190815260200160002060009055600660008573ffffffffffffffffffffffffffffffffffffffff1673ffffffffffffffffffffffffffffffffffffffff16815260200190815260200160002060008381526020019081526020016000206000905550505050565b6000600160088054905062000cd19190620018f2565b905060006009600084815260200190815260200160002054905060006008838154811062000d045762000d036200192d565b5b90600052602060002001549050806008838154811062000d295762000d286200192d565b5b90600052602060002001819055508160096000838152602001908152602001600020819055506009600085815260200190815260200160002060009055600880548062000d7b5762000d7a6200195c565b5b6001900381819060005260206000200160009055905550505050565b600062000daf8362000e2360201b620017921760201c565b905081600660008573ffffffffffffffffffffffffffffffffffffffff1673ffffffffffffffffffffffffffffffffffffffff168152602001908152602001600020600083815260200190815260200160002081905550806007600084815260200190815260200160002081905550505050565b60008073ffffffffffffffffffffffffffffffffffffffff168273ffffffffffffffffffffffffffffffffffffffff160362000e96576040517f08c379a000000000000000000000000000000000000000000000000000000000815260040162000e8d9062001a01565b60405180910390fd5b600360008373ffffffffffffffffffffffffffffffffffffffff1673ffffffffffffffffffffffffffffffffffffffff168152602001908152602001600020549050919050565b600081519050919050565b7f4e487b7100000000000000000000000000000000000000000000000000000000600052604160045260246000fd5b7f4e487b7100000000000000000000000000000000000000000000000000000000600052602260045260246000fd5b6000600282049050600182168062000f5f57607f821691505b60208210810362000f755762000f7462000f17565b5b50919050565b60008190508160005260206000209050919050565b60006020601f8301049050919050565b600082821b905092915050565b60006008830262000fdf7fffffffffffffffffffffffffffffffffffffffffffffffffffffffffffffffff8262000fa0565b62000feb868362000fa0565b95508019841693508086168417925050509392505050565b6000819050919050565b6000819050919050565b600062001038620010326200102c8462001003565b6200100d565b62001003565b9050919050565b6000819050919050565b620010548362001017565b6200106c62001063826200103f565b84845462000fad565b825550505050565b600090565b6200108362001074565b6200109081848462001049565b505050565b5b81811015620010b857620010ac60008262001079565b60018101905062001096565b5050565b601f8211156200110757620010d18162000f7b565b620010dc8462000f90565b81016020851015620010ec578190505b62001104620010fb8562000f90565b83018262001095565b50505b505050565b600082821c905092915050565b60006200112c600019846008026200110c565b1980831691505092915050565b600062001147838362001119565b9150826002028217905092915050565b620011628262000edd565b67ffffffffffffffff8111156200117e576200117d62000ee8565b5b6200118a825462000f46565b62001197828285620010bc565b600060209050601f831160018114620011cf5760008415620011ba578287015190505b620011c6858262001139565b86555062001236565b601f198416620011df8662000f7b565b60005b828110156200120957848901518255600182019150602085019450602081019050620011e2565b8683101562001229578489015162001225601f89168262001119565b8355505b6001600288020188555050505b505050505050565b6000604051905090565b600080fd5b600080fd5b600080fd5b600080fd5b6000601f19601f8301169050919050565b62001278826200125c565b810181811067ffffffffffffffff821117156200129a576200129962000ee8565b5b80604052505050565b6000620012af6200123e565b9050620012bd82826200126d565b919050565b600067ffffffffffffffff821115620012e057620012df62000ee8565b5b620012eb826200125c565b9050602081019050919050565b60005b8381101562001318578082015181840152602081019050620012fb565b60008484015250505050565b60006200133b6200133584620012c2565b620012a3565b9050828152602081018484840111156200135a576200135962001257565b5b62001367848285620012f8565b509392505050565b600082601f83011262001387576200138662001252565b5b81516200139984826020860162001324565b91505092915050565b600080600060608486031215620013be57620013bd62001248565b5b600084015167ffffffffffffffff811115620013df57620013de6200124d565b5b620013ed868287016200136f565b935050602084015167ffffffffffffffff8111156200141157620014106200124d565b5b6200141f868287016200136f565b925050604084015167ffffffffffffffff8111156200144357620014426200124d565b5b62001451868287016200136f565b9150509250925092565b600082825260208201905092915050565b7f4f776e61626c653a2063616c6c6572206973206e6f7420746865206f776e6572600082015250565b6000620014a46020836200145b565b9150620014b1826200146c565b602082019050919050565b60006020820190508181036000830152620014d78162001495565b9050919050565b7f4e487b7100000000000000000000000000000000000000000000000000000000600052601160045260246000fd5b60006200151a8262001003565b9150620015278362001003565b9250828201905080821115620015425762001541620014de565b5b92915050565b6000620015558262001003565b9150620015628362001003565b9250828202620015728162001003565b915082820484148315176200158c576200158b620014de565b5b5092915050565b6000620015a08262001003565b91507fffffffffffffffffffffffffffffffffffffffffffffffffffffffffffffffff8203620015d557620015d4620014de565b5b600182019050919050565b7f4552433732313a207472616e7366657220746f206e6f6e20455243373231526560008201527f63656976657220696d706c656d656e7465720000000000000000000000000000602082015250565b60006200163e6032836200145b565b91506200164b82620015e0565b604082019050919050565b6000602082019050818103600083015262001671816200162f565b9050919050565b7f4552433732313a206d696e7420746f20746865207a65726f2061646472657373600082015250565b6000620016b06020836200145b565b9150620016bd8262001678565b602082019050919050565b60006020820190508181036000830152620016e381620016a1565b9050919050565b7f4552433732313a20746f6b656e20616c7265616479206d696e74656400000000600082015250565b600062001722601c836200145b565b91506200172f82620016ea565b602082019050919050565b60006020820190508181036000830152620017558162001713565b9050919050565b600073ffffffffffffffffffffffffffffffffffffffff82169050919050565b600062001789826200175c565b9050919050565b6200179b816200177c565b82525050565b620017ac8162001003565b82525050565b600081519050919050565b600082825260208201905092915050565b6000620017db82620017b2565b620017e78185620017bd565b9350620017f9818560208601620012f8565b62001804816200125c565b840191505092915050565b600060808201905062001826600083018762001790565b62001835602083018662001790565b620018446040830185620017a1565b8181036060830152620018588184620017ce565b905095945050505050565b60007fffffffff0000000000000000000000000000000000000000000000000000000082169050919050565b6200189a8162001863565b8114620018a657600080fd5b50565b600081519050620018ba816200188f565b92915050565b600060208284031215620018d957620018d862001248565b5b6000620018e984828501620018a9565b91505092915050565b6000620018ff8262001003565b91506200190c8362001003565b9250828203905081811115620019275762001926620014de565b5b92915050565b7f4e487b7100000000000000000000000000000000000000000000000000000000600052603260045260246000fd5b7f4e487b7100000000000000000000000000000000000000000000000000000000600052603160045260246000fd5b7f4552433732313a2062616c616e636520717565727920666f7220746865207a6560008201527f726f206164647265737300000000000000000000000000000000000000000000602082015250565b6000620019e9602a836200145b565b9150620019f6826200198b565b604082019050919050565b6000602082019050818103600083015262001a1c81620019da565b9050919050565b614d318062001a336000396000f3fe60806040526004361061025c5760003560e01c806355f804b311610144578063b2f3e85e116100b6578063d936547e1161007a578063d936547e146108da578063da3ef23f14610917578063e6a9e57714610940578063e985e9c514610969578063ed931e17146109a6578063f2fde38b146109cf5761025c565b8063b2f3e85e146107f5578063b88d4fde1461081e578063c668286214610847578063c87b56dd14610872578063d5abeb01146108af5761025c565b8063715018a611610108578063715018a61461070d5780637f00c7a6146107245780638da5cb5b1461074d5780638fdcf9421461077857806395d89b41146107a1578063a22cb465146107cc5761025c565b806355f804b3146106145780635c975abb1461063d5780636352211e146106685780636c0360eb146106a557806370a08231146106d05761025c565b80632f745c59116101dd57806342842e0e116101a157806342842e0e146104f6578063438b63001461051f57806344a0d68a1461055c5780634a4c560d146105855780634f6ccce7146105ae578063546857c7146105eb5761025c565b80632f745c591461042d57806330b2264e1461046a57806330cc7ae0146104a75780633ccfd60b146104d057806340c10f19146104da5761025c565b806313faede61161022457806313faede61461035857806318160ddd14610383578063239c70ae146103ae57806323b872dd146103d95780632a23d07d146104025761025c565b806301ffc9a71461026157806302329a291461029e57806306fdde03146102c7578063081812fc146102f2578063095ea7b31461032f575b600080fd5b34801561026d57600080fd5b506102886004803603810190610283919061341f565b6109f8565b6040516102959190613467565b60405180910390f35b3480156102aa57600080fd5b506102c560048036038101906102c091906134ae565b610a72565b005b3480156102d357600080fd5b506102dc610b0b565b6040516102e9919061356b565b60405180910390f35b3480156102fe57600080fd5b50610319600480360381019061031491906135c3565b610b9d565b6040516103269190613631565b60405180910390f35b34801561033b57600080fd5b5061035660048036038101906103519190613678565b610c22565b005b34801561036457600080fd5b5061036d610d39565b60405161037a91906136c7565b60405180910390f35b34801561038f57600080fd5b50610398610d3f565b6040516103a591906136c7565b60405180910390f35b3480156103ba57600080fd5b506103c3610d4c565b6040516103d091906136c7565b60405180910390f35b3480156103e557600080fd5b5061040060048036038101906103fb91906136e2565b610d52565b005b34801561040e57600080fd5b50610417610db2565b60405161042491906136c7565b60405180910390f35b34801561043957600080fd5b50610454600480360381019061044f9190613678565b610db8565b60405161046191906136c7565b60405180910390f35b34801561047657600080fd5b50610491600480360381019061048c9190613735565b610e5d565b60405161049e9190613467565b60405180910390f35b3480156104b357600080fd5b506104ce60048036038101906104c99190613735565b610e7d565b005b6104d8610f54565b005b6104f460048036038101906104ef9190613678565b611049565b005b34801561050257600080fd5b5061051d600480360381019061051891906136e2565b611207565b005b34801561052b57600080fd5b5061054660048036038101906105419190613735565b611227565b6040516105539190613820565b60405180910390f35b34801561056857600080fd5b50610583600480360381019061057e91906135c3565b6112d5565b005b34801561059157600080fd5b506105ac60048036038101906105a79190613735565b61135b565b005b3480156105ba57600080fd5b506105d560048036038101906105d091906135c3565b611432565b6040516105e291906136c7565b60405180910390f35b3480156105f757600080fd5b50610612600480360381019061060d9190613978565b6114a3565b005b34801561062057600080fd5b5061063b60048036038101906106369190613a5b565b6115b1565b005b34801561064957600080fd5b50610652611640565b60405161065f9190613467565b60405180910390f35b34801561067457600080fd5b5061068f600480360381019061068a91906135c3565b611653565b60405161069c9190613631565b60405180910390f35b3480156106b157600080fd5b506106ba611704565b6040516106c7919061356b565b60405180910390f35b3480156106dc57600080fd5b506106f760048036038101906106f29190613735565b611792565b60405161070491906136c7565b60405180910390f35b34801561071957600080fd5b50610722611849565b005b34801561073057600080fd5b5061074b600480360381019061074691906135c3565b6118d1565b005b34801561075957600080fd5b50610762611957565b60405161076f9190613631565b60405180910390f35b34801561078457600080fd5b5061079f600480360381019061079a91906135c3565b611981565b005b3480156107ad57600080fd5b506107b6611a07565b6040516107c3919061356b565b60405180910390f35b3480156107d857600080fd5b506107f360048036038101906107ee9190613aa4565b611a99565b005b34801561080157600080fd5b5061081c60048036038101906108179190613735565b611c19565b005b34801561082a57600080fd5b5061084560048036038101906108409190613b85565b611cf0565b005b34801561085357600080fd5b5061085c611d52565b604051610869919061356b565b60405180910390f35b34801561087e57600080fd5b50610899600480360381019061089491906135c3565b611de0565b6040516108a6919061356b565b60405180910390f35b3480156108bb57600080fd5b506108c4611f40565b6040516108d191906136c7565b60405180910390f35b3480156108e657600080fd5b5061090160048036038101906108fc9190613735565b611f46565b60405161090e9190613467565b60405180910390f35b34801561092357600080fd5b5061093e60048036038101906109399190613a5b565b611f66565b005b34801561094c57600080fd5b50610967600480360381019061096291906134ae565b611ff5565b005b34801561097557600080fd5b50610990600480360381019061098b9190613c08565b61208e565b60405161099d9190613467565b60405180910390f35b3480156109b257600080fd5b506109cd60048036038101906109c89190613735565b612122565b005b3480156109db57600080fd5b506109f660048036038101906109f19190613735565b6121f9565b005b60007f780e9d63000000000000000000000000000000000000000000000000000000007bffffffffffffffffffffffffffffffffffffffffffffffffffffffff1916827bffffffffffffffffffffffffffffffffffffffffffffffffffffffff19161480610a6b5750610a6a82612308565b5b9050919050565b610a7a6123ea565b73ffffffffffffffffffffffffffffffffffffffff16610a98611957565b73ffffffffffffffffffffffffffffffffffffffff1614610aee576040517f08c379a0000000000000000000000000000000000000000000000000000000008152600401610ae590613c94565b60405180910390fd5b80601260006101000a81548160ff02191690831515021790555050565b606060008054610b1a90613ce3565b80601f0160208091040260200160405190810160405280929190818152602001828054610b4690613ce3565b8015610b935780601f10610b6857610100808354040283529160200191610b93565b820191906000526020600020905b815481529060010190602001808311610b7657829003601f168201915b5050505050905090565b6000610ba8826123f2565b610be7576040517f08c379a0000000000000000000000000000000000000000000000000000000008152600401610bde90613d86565b60405180910390fd5b6004600083815260200190815260200160002060009054906101000a900473ffffffffffffffffffffffffffffffffffffffff169050919050565b6000610c2d82611653565b90508073ffffffffffffffffffffffffffffffffffffffff168373ffffffffffffffffffffffffffffffffffffffff1603610c9d576040517f08c379a0000000000000000000000000000000000000000000000000000000008152600401610c9490613e18565b60405180910390fd5b8073ffffffffffffffffffffffffffffffffffffffff16610cbc6123ea565b73ffffffffffffffffffffffffffffffffffffffff161480610ceb5750610cea81610ce56123ea565b61208e565b5b610d2a576040517f08c379a0000000000000000000000000000000000000000000000000000000008152600401610d2190613eaa565b60405180910390fd5b610d34838361245e565b505050565b600e5481565b6000600880549050905090565b60115481565b610d63610d5d6123ea565b82612517565b610da2576040517f08c379a0000000000000000000000000000000000000000000000000000000008152600401610d9990613f3c565b60405180910390fd5b610dad8383836125f5565b505050565b600f5481565b6000610dc383611792565b8210610e04576040517f08c379a0000000000000000000000000000000000000000000000000000000008152600401610dfb90613fce565b60405180910390fd5b600660008473ffffffffffffffffffffffffffffffffffffffff1673ffffffffffffffffffffffffffffffffffffffff168152602001908152602001600020600083815260200190815260200160002054905092915050565b60146020528060005260406000206000915054906101000a900460ff1681565b610e856123ea565b73ffffffffffffffffffffffffffffffffffffffff16610ea3611957565b73ffffffffffffffffffffffffffffffffffffffff1614610ef9576040517f08c379a0000000000000000000000000000000000000000000000000000000008152600401610ef090613c94565b60405180910390fd5b6000601360008373ffffffffffffffffffffffffffffffffffffffff1673ffffffffffffffffffffffffffffffffffffffff16815260200190815260200160002060006101000a81548160ff02191690831515021790555050565b610f5c6123ea565b73ffffffffffffffffffffffffffffffffffffffff16610f7a611957565b73ffffffffffffffffffffffffffffffffffffffff1614610fd0576040517f08c379a0000000000000000000000000000000000000000000000000000000008152600401610fc790613c94565b60405180910390fd5b60003373ffffffffffffffffffffffffffffffffffffffff1647604051610ff69061401f565b60006040518083038185875af1925050503d8060008114611033576040519150601f19603f3d011682016040523d82523d6000602084013e611038565b606091505b505090508061104657600080fd5b50565b6000611053610d3f565b9050601260009054906101000a900460ff161561106f57600080fd5b6000821161107c57600080fd5b60115482111561108b57600080fd5b601054828261109a9190614063565b11156110a557600080fd5b6110ad611957565b73ffffffffffffffffffffffffffffffffffffffff163373ffffffffffffffffffffffffffffffffffffffff16146111cb5760011515601360003373ffffffffffffffffffffffffffffffffffffffff1673ffffffffffffffffffffffffffffffffffffffff16815260200190815260200160002060009054906101000a900460ff161515146111ca5760011515601460003373ffffffffffffffffffffffffffffffffffffffff1673ffffffffffffffffffffffffffffffffffffffff16815260200190815260200160002060009054906101000a900460ff161515146111ae5781600e5461119d9190614097565b3410156111a957600080fd5b6111c9565b81600f546111bc9190614097565b3410156111c857600080fd5b5b5b5b6000600190505b828111611201576111ee8482846111e99190614063565b612850565b80806111f9906140d9565b9150506111d2565b50505050565b61122283838360405180602001604052806000815250611cf0565b505050565b6060600061123483611792565b905060008167ffffffffffffffff81111561125257611251613847565b5b6040519080825280602002602001820160405280156112805781602001602082028036833780820191505090505b50905060005b828110156112ca576112988582610db8565b8282815181106112ab576112aa614121565b5b60200260200101818152505080806112c2906140d9565b915050611286565b508092505050919050565b6112dd6123ea565b73ffffffffffffffffffffffffffffffffffffffff166112fb611957565b73ffffffffffffffffffffffffffffffffffffffff1614611351576040517f08c379a000000000000000000000000000000000000000000000000000000000815260040161134890613c94565b60405180910390fd5b80600e8190555050565b6113636123ea565b73ffffffffffffffffffffffffffffffffffffffff16611381611957565b73ffffffffffffffffffffffffffffffffffffffff16146113d7576040517f08c379a00000000000000000000000000000000000000000000000000000000081526004016113ce90613c94565b60405180910390fd5b6001601360008373ffffffffffffffffffffffffffffffffffffffff1673ffffffffffffffffffffffffffffffffffffffff16815260200190815260200160002060006101000a81548160ff02191690831515021790555050565b600061143c610d3f565b821061147d576040517f08c379a0000000000000000000000000000000000000000000000000000000008152600401611474906141c2565b60405180910390fd5b6008828154811061149157611490614121565b5b90600052602060002001549050919050565b6114ab6123ea565b73ffffffffffffffffffffffffffffffffffffffff166114c9611957565b73ffffffffffffffffffffffffffffffffffffffff161461151f576040517f08c379a000000000000000000000000000000000000000000000000000000000815260040161151690613c94565b60405180910390fd5b60005b60028110156115ad5760016014600084846064811061154457611543614121565b5b602002015173ffffffffffffffffffffffffffffffffffffffff1673ffffffffffffffffffffffffffffffffffffffff16815260200190815260200160002060006101000a81548160ff02191690831515021790555080806115a5906140d9565b915050611522565b5050565b6115b96123ea565b73ffffffffffffffffffffffffffffffffffffffff166115d7611957565b73ffffffffffffffffffffffffffffffffffffffff161461162d576040517f08c379a000000000000000000000000000000000000000000000000000000000815260040161162490613c94565b60405180910390fd5b80600c908161163c919061438e565b5050565b601260009054906101000a900460ff1681565b6000806002600084815260200190815260200160002060009054906101000a900473ffffffffffffffffffffffffffffffffffffffff169050600073ffffffffffffffffffffffffffffffffffffffff168173ffffffffffffffffffffffffffffffffffffffff16036116fb576040517f08c379a00000000000000000000000000000000000000000000000000000000081526004016116f2906144d2565b60405180910390fd5b80915050919050565b600c805461171190613ce3565b80601f016020809104026020016040519081016040528092919081815260200182805461173d90613ce3565b801561178a5780601f1061175f5761010080835404028352916020019161178a565b820191906000526020600020905b81548152906001019060200180831161176d57829003601f168201915b505050505081565b60008073ffffffffffffffffffffffffffffffffffffffff168273ffffffffffffffffffffffffffffffffffffffff1603611802576040517f08c379a00000000000000000000000000000000000000000000000000000000081526004016117f990614564565b60405180910390fd5b600360008373ffffffffffffffffffffffffffffffffffffffff1673ffffffffffffffffffffffffffffffffffffffff168152602001908152602001600020549050919050565b6118516123ea565b73ffffffffffffffffffffffffffffffffffffffff1661186f611957565b73ffffffffffffffffffffffffffffffffffffffff16146118c5576040517f08c379a00000000000000000000000000000000000000000000000000000000081526004016118bc90613c94565b60405180910390fd5b6118cf600061286e565b565b6118d96123ea565b73ffffffffffffffffffffffffffffffffffffffff166118f7611957565b73ffffffffffffffffffffffffffffffffffffffff161461194d576040517f08c379a000000000000000000000000000000000000000000000000000000000815260040161194490613c94565b60405180910390fd5b8060118190555050565b6000600a60009054906101000a900473ffffffffffffffffffffffffffffffffffffffff16905090565b6119896123ea565b73ffffffffffffffffffffffffffffffffffffffff166119a7611957565b73ffffffffffffffffffffffffffffffffffffffff16146119fd576040517f08c379a00000000000000000000000000000000000000000000000000000000081526004016119f490613c94565b60405180910390fd5b80600f8190555050565b606060018054611a1690613ce3565b80601f0160208091040260200160405190810160405280929190818152602001828054611a4290613ce3565b8015611a8f5780601f10611a6457610100808354040283529160200191611a8f565b820191906000526020600020905b815481529060010190602001808311611a7257829003601f168201915b5050505050905090565b611aa16123ea565b73ffffffffffffffffffffffffffffffffffffffff168273ffffffffffffffffffffffffffffffffffffffff1603611b0e576040517f08c379a0000000000000000000000000000000000000000000000000000000008152600401611b05906145d0565b60405180910390fd5b8060056000611b1b6123ea565b73ffffffffffffffffffffffffffffffffffffffff1673ffffffffffffffffffffffffffffffffffffffff16815260200190815260200160002060008473ffffffffffffffffffffffffffffffffffffffff1673ffffffffffffffffffffffffffffffffffffffff16815260200190815260200160002060006101000a81548160ff0219169083151502179055508173ffffffffffffffffffffffffffffffffffffffff16611bc86123ea565b73ffffffffffffffffffffffffffffffffffffffff167f17307eab39ab6107e8899845ad3d59bd9653f200f220920489ca2b5937696c3183604051611c0d9190613467565b60405180910390a35050565b611c216123ea565b73ffffffffffffffffffffffffffffffffffffffff16611c3f611957565b73ffffffffffffffffffffffffffffffffffffffff1614611c95576040517f08c379a0000000000000000000000000000000000000000000000000000000008152600401611c8c90613c94565b60405180910390fd5b6001601460008373ffffffffffffffffffffffffffffffffffffffff1673ffffffffffffffffffffffffffffffffffffffff16815260200190815260200160002060006101000a81548160ff02191690831515021790555050565b611d01611cfb6123ea565b83612517565b611d40576040517f08c379a0000000000000000000000000000000000000000000000000000000008152600401611d3790613f3c565b60405180910390fd5b611d4c84848484612934565b50505050565b600d8054611d5f90613ce3565b80601f0160208091040260200160405190810160405280929190818152602001828054611d8b90613ce3565b8015611dd85780601f10611dad57610100808354040283529160200191611dd8565b820191906000526020600020905b815481529060010190602001808311611dbb57829003601f168201915b505050505081565b6060611deb826123f2565b611e2a576040517f08c379a0000000000000000000000000000000000000000000000000000000008152600401611e2190614662565b60405180910390fd5b6000611e34612990565b9050600a60149054906101000a900460ff1615611eac576000600c8054611e5a90613ce3565b905011611e765760405180602001604052806000815250611ea4565b80611e8084612a22565b600d604051602001611e9493929190614741565b6040516020818303038152906040525b915050611f3b565b600b8054611eb990613ce3565b80601f0160208091040260200160405190810160405280929190818152602001828054611ee590613ce3565b8015611f325780601f10611f0757610100808354040283529160200191611f32565b820191906000526020600020905b815481529060010190602001808311611f1557829003601f168201915b50505050509150505b919050565b60105481565b60136020528060005260406000206000915054906101000a900460ff1681565b611f6e6123ea565b73ffffffffffffffffffffffffffffffffffffffff16611f8c611957565b73ffffffffffffffffffffffffffffffffffffffff1614611fe2576040517f08c379a0000000000000000000000000000000000000000000000000000000008152600401611fd990613c94565b60405180910390fd5b80600d9081611ff1919061438e565b5050565b611ffd6123ea565b73ffffffffffffffffffffffffffffffffffffffff1661201b611957565b73ffffffffffffffffffffffffffffffffffffffff1614612071576040517f08c379a000000000000000000000000000000000000000000000000000000000815260040161206890613c94565b60405180910390fd5b80600a60146101000a81548160ff02191690831515021790555050565b6000600560008473ffffffffffffffffffffffffffffffffffffffff1673ffffffffffffffffffffffffffffffffffffffff16815260200190815260200160002060008373ffffffffffffffffffffffffffffffffffffffff1673ffffffffffffffffffffffffffffffffffffffff16815260200190815260200160002060009054906101000a900460ff16905092915050565b61212a6123ea565b73ffffffffffffffffffffffffffffffffffffffff16612148611957565b73ffffffffffffffffffffffffffffffffffffffff161461219e576040517f08c379a000000000000000000000000000000000000000000000000000000000815260040161219590613c94565b60405180910390fd5b6000601460008373ffffffffffffffffffffffffffffffffffffffff1673ffffffffffffffffffffffffffffffffffffffff16815260200190815260200160002060006101000a81548160ff02191690831515021790555050565b6122016123ea565b73ffffffffffffffffffffffffffffffffffffffff1661221f611957565b73ffffffffffffffffffffffffffffffffffffffff1614612275576040517f08c379a000000000000000000000000000000000000000000000000000000000815260040161226c90613c94565b60405180910390fd5b600073ffffffffffffffffffffffffffffffffffffffff168173ffffffffffffffffffffffffffffffffffffffff16036122e4576040517f08c379a00000000000000000000000000000000000000000000000000000000081526004016122db906147e4565b60405180910390fd5b6122ed8161286e565b50565b600080823b905060008111915050919050565b505050565b60007f80ac58cd000000000000000000000000000000000000000000000000000000007bffffffffffffffffffffffffffffffffffffffffffffffffffffffff1916827bffffffffffffffffffffffffffffffffffffffffffffffffffffffff191614806123d357507f5b5e139f000000000000000000000000000000000000000000000000000000007bffffffffffffffffffffffffffffffffffffffffffffffffffffffff1916827bffffffffffffffffffffffffffffffffffffffffffffffffffffffff1916145b806123e357506123e282612b82565b5b9050919050565b600033905090565b60008073ffffffffffffffffffffffffffffffffffffffff166002600084815260200190815260200160002060009054906101000a900473ffffffffffffffffffffffffffffffffffffffff1673ffffffffffffffffffffffffffffffffffffffff1614159050919050565b816004600083815260200190815260200160002060006101000a81548173ffffffffffffffffffffffffffffffffffffffff021916908373ffffffffffffffffffffffffffffffffffffffff160217905550808273ffffffffffffffffffffffffffffffffffffffff166124d183611653565b73ffffffffffffffffffffffffffffffffffffffff167f8c5be1e5ebec7d5bd14f71427d1e84f3dd0314c0f7b2291e5b200ac8c7c3b92560405160405180910390a45050565b6000612522826123f2565b612561576040517f08c379a000000000000000000000000000000000000000000000000000000000815260040161255890614876565b60405180910390fd5b600061256c83611653565b90508073ffffffffffffffffffffffffffffffffffffffff168473ffffffffffffffffffffffffffffffffffffffff1614806125db57508373ffffffffffffffffffffffffffffffffffffffff166125c384610b9d565b73ffffffffffffffffffffffffffffffffffffffff16145b806125ec57506125eb818561208e565b5b91505092915050565b8273ffffffffffffffffffffffffffffffffffffffff1661261582611653565b73ffffffffffffffffffffffffffffffffffffffff161461266b576040517f08c379a000000000000000000000000000000000000000000000000000000000815260040161266290614908565b60405180910390fd5b600073ffffffffffffffffffffffffffffffffffffffff168273ffffffffffffffffffffffffffffffffffffffff16036126da576040517f08c379a00000000000000000000000000000000000000000000000000000000081526004016126d19061499a565b60405180910390fd5b6126e5838383612bec565b6126f060008261245e565b6001600360008573ffffffffffffffffffffffffffffffffffffffff1673ffffffffffffffffffffffffffffffffffffffff168152602001908152602001600020600082825461274091906149ba565b925050819055506001600360008473ffffffffffffffffffffffffffffffffffffffff1673ffffffffffffffffffffffffffffffffffffffff16815260200190815260200160002060008282546127979190614063565b92505081905550816002600083815260200190815260200160002060006101000a81548173ffffffffffffffffffffffffffffffffffffffff021916908373ffffffffffffffffffffffffffffffffffffffff160217905550808273ffffffffffffffffffffffffffffffffffffffff168473ffffffffffffffffffffffffffffffffffffffff167fddf252ad1be2c89b69c2b068fc378daa952ba7f163c4a11628f55a4df523b3ef60405160405180910390a4505050565b61286a828260405180602001604052806000815250612cfe565b5050565b6000600a60009054906101000a900473ffffffffffffffffffffffffffffffffffffffff16905081600a60006101000a81548173ffffffffffffffffffffffffffffffffffffffff021916908373ffffffffffffffffffffffffffffffffffffffff1602179055508173ffffffffffffffffffffffffffffffffffffffff168173ffffffffffffffffffffffffffffffffffffffff167f8be0079c531659141344cd1fd0a4f28419497f9722a3daafe3b4186f6b6457e060405160405180910390a35050565b61293f8484846125f5565b61294b84848484612d59565b61298a576040517f08c379a000000000000000000000000000000000000000000000000000000000815260040161298190614a60565b60405180910390fd5b50505050565b6060600c805461299f90613ce3565b80601f01602080910402602001604051908101604052809291908181526020018280546129cb90613ce3565b8015612a185780601f106129ed57610100808354040283529160200191612a18565b820191906000526020600020905b8154815290600101906020018083116129fb57829003601f168201915b5050505050905090565b606060008203612a69576040518060400160405280600181526020017f30000000000000000000000000000000000000000000000000000000000000008152509050612b7d565b600082905060005b60008214612a9b578080612a84906140d9565b915050600a82612a949190614aaf565b9150612a71565b60008167ffffffffffffffff811115612ab757612ab6613847565b5b6040519080825280601f01601f191660200182016040528015612ae95781602001600182028036833780820191505090505b5090505b60008514612b7657600182612b0291906149ba565b9150600a85612b119190614ae0565b6030612b1d9190614063565b60f81b818381518110612b3357612b32614121565b5b60200101907effffffffffffffffffffffffffffffffffffffffffffffffffffffffffffff1916908160001a905350600a85612b6f9190614aaf565b9450612aed565b8093505050505b919050565b60007f01ffc9a7000000000000000000000000000000000000000000000000000000007bffffffffffffffffffffffffffffffffffffffffffffffffffffffff1916827bffffffffffffffffffffffffffffffffffffffffffffffffffffffff1916149050919050565b612bf7838383612303565b600073ffffffffffffffffffffffffffffffffffffffff168373ffffffffffffffffffffffffffffffffffffffff1603612c3957612c3481612ee0565b612c78565b8173ffffffffffffffffffffffffffffffffffffffff168373ffffffffffffffffffffffffffffffffffffffff1614612c7757612c768382612f29565b5b5b600073ffffffffffffffffffffffffffffffffffffffff168273ffffffffffffffffffffffffffffffffffffffff1603612cba57612cb581613096565b612cf9565b8273ffffffffffffffffffffffffffffffffffffffff168273ffffffffffffffffffffffffffffffffffffffff1614612cf857612cf78282613167565b5b5b505050565b612d0883836131e6565b612d156000848484612d59565b612d54576040517f08c379a0000000000000000000000000000000000000000000000000000000008152600401612d4b90614a60565b60405180910390fd5b505050565b6000612d7a8473ffffffffffffffffffffffffffffffffffffffff166122f0565b15612ed3578373ffffffffffffffffffffffffffffffffffffffff1663150b7a02612da36123ea565b8786866040518563ffffffff1660e01b8152600401612dc59493929190614b66565b6020604051808303816000875af1925050508015612e0157506040513d601f19601f82011682018060405250810190612dfe9190614bc7565b60015b612e83573d8060008114612e31576040519150601f19603f3d011682016040523d82523d6000602084013e612e36565b606091505b506000815103612e7b576040517f08c379a0000000000000000000000000000000000000000000000000000000008152600401612e7290614a60565b60405180910390fd5b805181602001fd5b63150b7a0260e01b7bffffffffffffffffffffffffffffffffffffffffffffffffffffffff1916817bffffffffffffffffffffffffffffffffffffffffffffffffffffffff191614915050612ed8565b600190505b949350505050565b6008805490506009600083815260200190815260200160002081905550600881908060018154018082558091505060019003906000526020600020016000909190919091505550565b60006001612f3684611792565b612f4091906149ba565b9050600060076000848152602001908152602001600020549050818114613025576000600660008673ffffffffffffffffffffffffffffffffffffffff1673ffffffffffffffffffffffffffffffffffffffff168152602001908152602001600020600084815260200190815260200160002054905080600660008773ffffffffffffffffffffffffffffffffffffffff1673ffffffffffffffffffffffffffffffffffffffff168152602001908152602001600020600084815260200190815260200160002081905550816007600083815260200190815260200160002081905550505b6007600084815260200190815260200160002060009055600660008573ffffffffffffffffffffffffffffffffffffffff1673ffffffffffffffffffffffffffffffffffffffff16815260200190815260200160002060008381526020019081526020016000206000905550505050565b600060016008805490506130aa91906149ba565b90506000600960008481526020019081526020016000205490506000600883815481106130da576130d9614121565b5b9060005260206000200154905080600883815481106130fc576130fb614121565b5b90600052602060002001819055508160096000838152602001908152602001600020819055506009600085815260200190815260200160002060009055600880548061314b5761314a614bf4565b5b6001900381819060005260206000200160009055905550505050565b600061317283611792565b905081600660008573ffffffffffffffffffffffffffffffffffffffff1673ffffffffffffffffffffffffffffffffffffffff168152602001908152602001600020600083815260200190815260200160002081905550806007600084815260200190815260200160002081905550505050565b600073ffffffffffffffffffffffffffffffffffffffff168273ffffffffffffffffffffffffffffffffffffffff1603613255576040517f08c379a000000000000000000000000000000000000000000000000000000000815260040161324c90614c6f565b60405180910390fd5b61325e816123f2565b1561329e576040517f08c379a000000000000000000000000000000000000000000000000000000000815260040161329590614cdb565b60405180910390fd5b6132aa60008383612bec565b6001600360008473ffffffffffffffffffffffffffffffffffffffff1673ffffffffffffffffffffffffffffffffffffffff16815260200190815260200160002060008282546132fa9190614063565b92505081905550816002600083815260200190815260200160002060006101000a81548173ffffffffffffffffffffffffffffffffffffffff021916908373ffffffffffffffffffffffffffffffffffffffff160217905550808273ffffffffffffffffffffffffffffffffffffffff16600073ffffffffffffffffffffffffffffffffffffffff167fddf252ad1be2c89b69c2b068fc378daa952ba7f163c4a11628f55a4df523b3ef60405160405180910390a45050565b6000604051905090565b600080fd5b600080fd5b60007fffffffff0000000000000000000000000000000000000000000000000000000082169050919050565b6133fc816133c7565b811461340757600080fd5b50565b600081359050613419816133f3565b92915050565b600060208284031215613435576134346133bd565b5b60006134438482850161340a565b91505092915050565b60008115159050919050565b6134618161344c565b82525050565b600060208201905061347c6000830184613458565b92915050565b61348b8161344c565b811461349657600080fd5b50565b6000813590506134a881613482565b92915050565b6000602082840312156134c4576134c36133bd565b5b60006134d284828501613499565b91505092915050565b600081519050919050565b600082825260208201905092915050565b60005b838110156135155780820151818401526020810190506134fa565b60008484015250505050565b6000601f19601f8301169050919050565b600061353d826134db565b61354781856134e6565b93506135578185602086016134f7565b61356081613521565b840191505092915050565b600060208201905081810360008301526135858184613532565b905092915050565b6000819050919050565b6135a08161358d565b81146135ab57600080fd5b50565b6000813590506135bd81613597565b92915050565b6000602082840312156135d9576135d86133bd565b5b60006135e7848285016135ae565b91505092915050565b600073ffffffffffffffffffffffffffffffffffffffff82169050919050565b600061361b826135f0565b9050919050565b61362b81613610565b82525050565b60006020820190506136466000830184613622565b92915050565b61365581613610565b811461366057600080fd5b50565b6000813590506136728161364c565b92915050565b6000806040838503121561368f5761368e6133bd565b5b600061369d85828601613663565b92505060206136ae858286016135ae565b9150509250929050565b6136c18161358d565b82525050565b60006020820190506136dc60008301846136b8565b92915050565b6000806000606084860312156136fb576136fa6133bd565b5b600061370986828701613663565b935050602061371a86828701613663565b925050604061372b868287016135ae565b9150509250925092565b60006020828403121561374b5761374a6133bd565b5b600061375984828501613663565b91505092915050565b600081519050919050565b600082825260208201905092915050565b6000819050602082019050919050565b6137978161358d565b82525050565b60006137a9838361378e565b60208301905092915050565b6000602082019050919050565b60006137cd82613762565b6137d7818561376d565b93506137e28361377e565b8060005b838110156138135781516137fa888261379d565b9750613805836137b5565b9250506001810190506137e6565b5085935050505092915050565b6000602082019050818103600083015261383a81846137c2565b905092915050565b600080fd5b7f4e487b7100000000000000000000000000000000000000000000000000000000600052604160045260246000fd5b61387f82613521565b810181811067ffffffffffffffff8211171561389e5761389d613847565b5b80604052505050565b60006138b16133b3565b90506138bd8282613876565b919050565b600067ffffffffffffffff8211156138dd576138dc613847565b5b602082029050919050565b600080fd5b60006139006138fb846138c2565b6138a7565b9050806020840283018581111561391a576139196138e8565b5b835b81811015613943578061392f8882613663565b84526020840193505060208101905061391c565b5050509392505050565b600082601f83011261396257613961613842565b5b606461396f8482856138ed565b91505092915050565b6000610c80828403121561398f5761398e6133bd565b5b600061399d8482850161394d565b91505092915050565b600080fd5b600067ffffffffffffffff8211156139c6576139c5613847565b5b6139cf82613521565b9050602081019050919050565b82818337600083830152505050565b60006139fe6139f9846139ab565b6138a7565b905082815260208101848484011115613a1a57613a196139a6565b5b613a258482856139dc565b509392505050565b600082601f830112613a4257613a41613842565b5b8135613a528482602086016139eb565b91505092915050565b600060208284031215613a7157613a706133bd565b5b600082013567ffffffffffffffff811115613a8f57613a8e6133c2565b5b613a9b84828501613a2d565b91505092915050565b60008060408385031215613abb57613aba6133bd565b5b6000613ac985828601613663565b9250506020613ada85828601613499565b9150509250929050565b600067ffffffffffffffff821115613aff57613afe613847565b5b613b0882613521565b9050602081019050919050565b6000613b28613b2384613ae4565b6138a7565b905082815260208101848484011115613b4457613b436139a6565b5b613b4f8482856139dc565b509392505050565b600082601f830112613b6c57613b6b613842565b5b8135613b7c848260208601613b15565b91505092915050565b60008060008060808587031215613b9f57613b9e6133bd565b5b6000613bad87828801613663565b9450506020613bbe87828801613663565b9350506040613bcf878288016135ae565b925050606085013567ffffffffffffffff811115613bf057613bef6133c2565b5b613bfc87828801613b57565b91505092959194509250565b60008060408385031215613c1f57613c1e6133bd565b5b6000613c2d85828601613663565b9250506020613c3e85828601613663565b9150509250929050565b7f4f776e61626c653a2063616c6c6572206973206e6f7420746865206f776e6572600082015250565b6000613c7e6020836134e6565b9150613c8982613c48565b602082019050919050565b60006020820190508181036000830152613cad81613c71565b9050919050565b7f4e487b7100000000000000000000000000000000000000000000000000000000600052602260045260246000fd5b60006002820490506001821680613cfb57607f821691505b602082108103613d0e57613d0d613cb4565b5b50919050565b7f4552433732313a20617070726f76656420717565727920666f72206e6f6e657860008201527f697374656e7420746f6b656e0000000000000000000000000000000000000000602082015250565b6000613d70602c836134e6565b9150613d7b82613d14565b604082019050919050565b60006020820190508181036000830152613d9f81613d63565b9050919050565b7f4552433732313a20617070726f76616c20746f2063757272656e74206f776e6560008201527f7200000000000000000000000000000000000000000000000000000000000000602082015250565b6000613e026021836134e6565b9150613e0d82613da6565b604082019050919050565b60006020820190508181036000830152613e3181613df5565b9050919050565b7f4552433732313a20617070726f76652063616c6c6572206973206e6f74206f7760008201527f6e6572206e6f7220617070726f76656420666f7220616c6c0000000000000000602082015250565b6000613e946038836134e6565b9150613e9f82613e38565b604082019050919050565b60006020820190508181036000830152613ec381613e87565b9050919050565b7f4552433732313a207472616e736665722063616c6c6572206973206e6f74206f60008201527f776e6572206e6f7220617070726f766564000000000000000000000000000000602082015250565b6000613f266031836134e6565b9150613f3182613eca565b604082019050919050565b60006020820190508181036000830152613f5581613f19565b9050919050565b7f455243373231456e756d657261626c653a206f776e657220696e646578206f7560008201527f74206f6620626f756e6473000000000000000000000000000000000000000000602082015250565b6000613fb8602b836134e6565b9150613fc382613f5c565b604082019050919050565b60006020820190508181036000830152613fe781613fab565b9050919050565b600081905092915050565b50565b6000614009600083613fee565b915061401482613ff9565b600082019050919050565b600061402a82613ffc565b9150819050919050565b7f4e487b7100000000000000000000000000000000000000000000000000000000600052601160045260246000fd5b600061406e8261358d565b91506140798361358d565b925082820190508082111561409157614090614034565b5b92915050565b60006140a28261358d565b91506140ad8361358d565b92508282026140bb8161358d565b915082820484148315176140d2576140d1614034565b5b5092915050565b60006140e48261358d565b91507fffffffffffffffffffffffffffffffffffffffffffffffffffffffffffffffff820361411657614115614034565b5b600182019050919050565b7f4e487b7100000000000000000000000000000000000000000000000000000000600052603260045260246000fd5b7f455243373231456e756d657261626c653a20676c6f62616c20696e646578206f60008201527f7574206f6620626f756e64730000000000000000000000000000000000000000602082015250565b60006141ac602c836134e6565b91506141b782614150565b604082019050919050565b600060208201905081810360008301526141db8161419f565b9050919050565b60008190508160005260206000209050919050565b60006020601f8301049050919050565b600082821b905092915050565b6000600883026142447fffffffffffffffffffffffffffffffffffffffffffffffffffffffffffffffff82614207565b61424e8683614207565b95508019841693508086168417925050509392505050565b6000819050919050565b600061428b6142866142818461358d565b614266565b61358d565b9050919050565b6000819050919050565b6142a583614270565b6142b96142b182614292565b848454614214565b825550505050565b600090565b6142ce6142c1565b6142d981848461429c565b505050565b5b818110156142fd576142f26000826142c6565b6001810190506142df565b5050565b601f82111561434257614313816141e2565b61431c846141f7565b8101602085101561432b578190505b61433f614337856141f7565b8301826142de565b50505b505050565b600082821c905092915050565b600061436560001984600802614347565b1980831691505092915050565b600061437e8383614354565b9150826002028217905092915050565b614397826134db565b67ffffffffffffffff8111156143b0576143af613847565b5b6143ba8254613ce3565b6143c5828285614301565b600060209050601f8311600181146143f857600084156143e6578287015190505b6143f08582614372565b865550614458565b601f198416614406866141e2565b60005b8281101561442e57848901518255600182019150602085019450602081019050614409565b8683101561444b5784890151614447601f891682614354565b8355505b6001600288020188555050505b505050505050565b7f4552433732313a206f776e657220717565727920666f72206e6f6e657869737460008201527f656e7420746f6b656e0000000000000000000000000000000000000000000000602082015250565b60006144bc6029836134e6565b91506144c782614460565b604082019050919050565b600060208201905081810360008301526144eb816144af565b9050919050565b7f4552433732313a2062616c616e636520717565727920666f7220746865207a6560008201527f726f206164647265737300000000000000000000000000000000000000000000602082015250565b600061454e602a836134e6565b9150614559826144f2565b604082019050919050565b6000602082019050818103600083015261457d81614541565b9050919050565b7f4552433732313a20617070726f766520746f2063616c6c657200000000000000600082015250565b60006145ba6019836134e6565b91506145c582614584565b602082019050919050565b600060208201905081810360008301526145e9816145ad565b9050919050565b7f4552433732314d657461646174613a2055524920717565727920666f72206e6f60008201527f6e6578697374656e7420746f6b656e0000000000000000000000000000000000602082015250565b600061464c602f836134e6565b9150614657826145f0565b604082019050919050565b6000602082019050818103600083015261467b8161463f565b9050919050565b600081905092915050565b6000614698826134db565b6146a28185614682565b93506146b28185602086016134f7565b80840191505092915050565b600081546146cb81613ce3565b6146d58186614682565b945060018216600081146146f0576001811461470557614738565b60ff1983168652811515820286019350614738565b61470e856141e2565b60005b8381101561473057815481890152600182019150602081019050614711565b838801955050505b50505092915050565b600061474d828661468d565b9150614759828561468d565b915061476582846146be565b9150819050949350505050565b7f4f776e61626c653a206e6577206f776e657220697320746865207a65726f206160008201527f6464726573730000000000000000000000000000000000000000000000000000602082015250565b60006147ce6026836134e6565b91506147d982614772565b604082019050919050565b600060208201905081810360008301526147fd816147c1565b9050919050565b7f4552433732313a206f70657261746f7220717565727920666f72206e6f6e657860008201527f697374656e7420746f6b656e0000000000000000000000000000000000000000602082015250565b6000614860602c836134e6565b915061486b82614804565b604082019050919050565b6000602082019050818103600083015261488f81614853565b9050919050565b7f4552433732313a207472616e73666572206f6620746f6b656e2074686174206960008201527f73206e6f74206f776e0000000000000000000000000000000000000000000000602082015250565b60006148f26029836134e6565b91506148fd82614896565b604082019050919050565b60006020820190508181036000830152614921816148e5565b9050919050565b7f4552433732313a207472616e7366657220746f20746865207a65726f2061646460008201527f7265737300000000000000000000000000000000000000000000000000000000602082015250565b60006149846024836134e6565b915061498f82614928565b604082019050919050565b600060208201905081810360008301526149b381614977565b9050919050565b60006149c58261358d565b91506149d08361358d565b92508282039050818111156149e8576149e7614034565b5b92915050565b7f4552433732313a207472616e7366657220746f206e6f6e20455243373231526560008201527f63656976657220696d706c656d656e7465720000000000000000000000000000602082015250565b6000614a4a6032836134e6565b9150614a55826149ee565b604082019050919050565b60006020820190508181036000830152614a7981614a3d565b9050919050565b7f4e487b7100000000000000000000000000000000000000000000000000000000600052601260045260246000fd5b6000614aba8261358d565b9150614ac58361358d565b925082614ad557614ad4614a80565b5b828204905092915050565b6000614aeb8261358d565b9150614af68361358d565b925082614b0657614b05614a80565b5b828206905092915050565b600081519050919050565b600082825260208201905092915050565b6000614b3882614b11565b614b428185614b1c565b9350614b528185602086016134f7565b614b5b81613521565b840191505092915050565b6000608082019050614b7b6000830187613622565b614b886020830186613622565b614b9560408301856136b8565b8181036060830152614ba78184614b2d565b905095945050505050565b600081519050614bc1816133f3565b92915050565b600060208284031215614bdd57614bdc6133bd565b5b6000614beb84828501614bb2565b91505092915050565b7f4e487b7100000000000000000000000000000000000000000000000000000000600052603160045260246000fd5b7f4552433732313a206d696e7420746f20746865207a65726f2061646472657373600082015250565b6000614c596020836134e6565b9150614c6482614c23565b602082019050919050565b60006020820190508181036000830152614c8881614c4c565b9050919050565b7f4552433732313a20746f6b656e20616c7265616479206d696e74656400000000600082015250565b6000614cc5601c836134e6565b9150614cd082614c8f565b602082019050919050565b60006020820190508181036000830152614cf481614cb8565b905091905056fea2646970667358221220140efb2f5fb588702fc0e9957af770c1c674dc47992854f86862bb12a8ae86da64736f6c63430008110033697066733a2f2f516d657871634c44766f5036484354745347756d4733797a685a64483867757656337a336b526543766632514b6e",
	"linkReferences": {},
	"deployedLinkReferences": {}
}