{
  "_format": "hh-sol-artifact-1",
  "contractName": "ThePoorGhostNFT",
  "sourceName": "contracts/ThePoorGhostNFT.sol",
  "abi": [
    {
      "inputs": [
        {
          "internalType": "string",
          "name": "_initBaseURI",
          "type": "string"
        }
      ],
      "stateMutability": "nonpayable",
      "type": "constructor"
    },
    {
      "anonymous": false,
      "inputs": [
        {
          "indexed": true,
          "internalType": "address",
          "name": "owner",
          "type": "address"
        },
        {
          "indexed": true,
          "internalType": "address",
          "name": "approved",
          "type": "address"
        },
        {
          "indexed": true,
          "internalType": "uint256",
          "name": "tokenId",
          "type": "uint256"
        }
      ],
      "name": "Approval",
      "type": "event"
    },
    {
      "anonymous": false,
      "inputs": [
        {
          "indexed": true,
          "internalType": "address",
          "name": "owner",
          "type": "address"
        },
        {
          "indexed": true,
          "internalType": "address",
          "name": "operator",
          "type": "address"
        },
        {
          "indexed": false,
          "internalType": "bool",
          "name": "approved",
          "type": "bool"
        }
      ],
      "name": "ApprovalForAll",
      "type": "event"
    },
    {
      "anonymous": false,
      "inputs": [
        {
          "indexed": true,
          "internalType": "address",
          "name": "previousOwner",
          "type": "address"
        },
        {
          "indexed": true,
          "internalType": "address",
          "name": "newOwner",
          "type": "address"
        }
      ],
      "name": "OwnershipTransferred",
      "type": "event"
    },
    {
      "anonymous": false,
      "inputs": [
        {
          "indexed": true,
          "internalType": "address",
          "name": "from",
          "type": "address"
        },
        {
          "indexed": true,
          "internalType": "address",
          "name": "to",
          "type": "address"
        },
        {
          "indexed": true,
          "internalType": "uint256",
          "name": "tokenId",
          "type": "uint256"
        }
      ],
      "name": "Transfer",
      "type": "event"
    },
    {
      "inputs": [
        {
          "internalType": "address[100]",
          "name": "_users",
          "type": "address[100]"
        }
      ],
      "name": "add100PresaleUsers",
      "outputs": [],
      "stateMutability": "nonpayable",
      "type": "function"
    },
    {
      "inputs": [
        {
          "internalType": "address",
          "name": "_user",
          "type": "address"
        }
      ],
      "name": "addPresaleUser",
      "outputs": [],
      "stateMutability": "nonpayable",
      "type": "function"
    },
    {
      "inputs": [
        {
          "internalType": "address",
          "name": "to",
          "type": "address"
        },
        {
          "internalType": "uint256",
          "name": "tokenId",
          "type": "uint256"
        }
      ],
      "name": "approve",
      "outputs": [],
      "stateMutability": "nonpayable",
      "type": "function"
    },
    {
      "inputs": [
        {
          "internalType": "address",
          "name": "owner",
          "type": "address"
        }
      ],
      "name": "balanceOf",
      "outputs": [
        {
          "internalType": "uint256",
          "name": "",
          "type": "uint256"
        }
      ],
      "stateMutability": "view",
      "type": "function"
    },
    {
      "inputs": [],
      "name": "baseExtension",
      "outputs": [
        {
          "internalType": "string",
          "name": "",
          "type": "string"
        }
      ],
      "stateMutability": "view",
      "type": "function"
    },
    {
      "inputs": [],
      "name": "baseURI",
      "outputs": [
        {
          "internalType": "string",
          "name": "",
          "type": "string"
        }
      ],
      "stateMutability": "view",
      "type": "function"
    },
    {
      "inputs": [],
      "name": "cost",
      "outputs": [
        {
          "internalType": "uint256",
          "name": "",
          "type": "uint256"
        }
      ],
      "stateMutability": "view",
      "type": "function"
    },
    {
      "inputs": [
        {
          "internalType": "uint256",
          "name": "tokenId",
          "type": "uint256"
        }
      ],
      "name": "getApproved",
      "outputs": [
        {
          "internalType": "address",
          "name": "",
          "type": "address"
        }
      ],
      "stateMutability": "view",
      "type": "function"
    },
    {
      "inputs": [
        {
          "internalType": "address",
          "name": "owner",
          "type": "address"
        },
        {
          "internalType": "address",
          "name": "operator",
          "type": "address"
        }
      ],
      "name": "isApprovedForAll",
      "outputs": [
        {
          "internalType": "bool",
          "name": "",
          "type": "bool"
        }
      ],
      "stateMutability": "view",
      "type": "function"
    },
    {
      "inputs": [],
      "name": "maxMintAmount",
      "outputs": [
        {
          "internalType": "uint256",
          "name": "",
          "type": "uint256"
        }
      ],
      "stateMutability": "view",
      "type": "function"
    },
    {
      "inputs": [],
      "name": "maxSupply",
      "outputs": [
        {
          "internalType": "uint256",
          "name": "",
          "type": "uint256"
        }
      ],
      "stateMutability": "view",
      "type": "function"
    },
    {
      "inputs": [
        {
          "internalType": "address",
          "name": "_to",
          "type": "address"
        },
        {
          "internalType": "uint256",
          "name": "_mintAmount",
          "type": "uint256"
        }
      ],
      "name": "mint",
      "outputs": [],
      "stateMutability": "payable",
      "type": "function"
    },
    {
      "inputs": [],
      "name": "name",
      "outputs": [
        {
          "internalType": "string",
          "name": "",
          "type": "string"
        }
      ],
      "stateMutability": "view",
      "type": "function"
    },
    {
      "inputs": [],
      "name": "owner",
      "outputs": [
        {
          "internalType": "address",
          "name": "",
          "type": "address"
        }
      ],
      "stateMutability": "view",
      "type": "function"
    },
    {
      "inputs": [
        {
          "internalType": "uint256",
          "name": "tokenId",
          "type": "uint256"
        }
      ],
      "name": "ownerOf",
      "outputs": [
        {
          "internalType": "address",
          "name": "",
          "type": "address"
        }
      ],
      "stateMutability": "view",
      "type": "function"
    },
    {
      "inputs": [
        {
          "internalType": "bool",
          "name": "_state",
          "type": "bool"
        }
      ],
      "name": "pause",
      "outputs": [],
      "stateMutability": "nonpayable",
      "type": "function"
    },
    {
      "inputs": [],
      "name": "paused",
      "outputs": [
        {
          "internalType": "bool",
          "name": "",
          "type": "bool"
        }
      ],
      "stateMutability": "view",
      "type": "function"
    },
    {
      "inputs": [
        {
          "internalType": "address",
          "name": "",
          "type": "address"
        }
      ],
      "name": "presaleWallets",
      "outputs": [
        {
          "internalType": "bool",
          "name": "",
          "type": "bool"
        }
      ],
      "stateMutability": "view",
      "type": "function"
    },
    {
      "inputs": [
        {
          "internalType": "address",
          "name": "_user",
          "type": "address"
        }
      ],
      "name": "removePresaleUser",
      "outputs": [],
      "stateMutability": "nonpayable",
      "type": "function"
    },
    {
      "inputs": [
        {
          "internalType": "address",
          "name": "_user",
          "type": "address"
        }
      ],
      "name": "removeWhitelistUser",
      "outputs": [],
      "stateMutability": "nonpayable",
      "type": "function"
    },
    {
      "inputs": [],
      "name": "renounceOwnership",
      "outputs": [],
      "stateMutability": "nonpayable",
      "type": "function"
    },
    {
      "inputs": [
        {
          "internalType": "address",
          "name": "from",
          "type": "address"
        },
        {
          "internalType": "address",
          "name": "to",
          "type": "address"
        },
        {
          "internalType": "uint256",
          "name": "tokenId",
          "type": "uint256"
        }
      ],
      "name": "safeTransferFrom",
      "outputs": [],
      "stateMutability": "nonpayable",
      "type": "function"
    },
    {
      "inputs": [
        {
          "internalType": "address",
          "name": "from",
          "type": "address"
        },
        {
          "internalType": "address",
          "name": "to",
          "type": "address"
        },
        {
          "internalType": "uint256",
          "name": "tokenId",
          "type": "uint256"
        },
        {
          "internalType": "bytes",
          "name": "_data",
          "type": "bytes"
        }
      ],
      "name": "safeTransferFrom",
      "outputs": [],
      "stateMutability": "nonpayable",
      "type": "function"
    },
    {
      "inputs": [
        {
          "internalType": "address",
          "name": "operator",
          "type": "address"
        },
        {
          "internalType": "bool",
          "name": "approved",
          "type": "bool"
        }
      ],
      "name": "setApprovalForAll",
      "outputs": [],
      "stateMutability": "nonpayable",
      "type": "function"
    },
    {
      "inputs": [
        {
          "internalType": "string",
          "name": "_newBaseExtension",
          "type": "string"
        }
      ],
      "name": "setBaseExtension",
      "outputs": [],
      "stateMutability": "nonpayable",
      "type": "function"
    },
    {
      "inputs": [
        {
          "internalType": "string",
          "name": "_newBaseURI",
          "type": "string"
        }
      ],
      "name": "setBaseURI",
      "outputs": [],
      "stateMutability": "nonpayable",
      "type": "function"
    },
    {
      "inputs": [
        {
          "internalType": "bool",
          "name": "_status",
          "type": "bool"
        }
      ],
      "name": "setBlindBoxOpened",
      "outputs": [],
      "stateMutability": "nonpayable",
      "type": "function"
    },
    {
      "inputs": [
        {
          "internalType": "uint256",
          "name": "_newCost",
          "type": "uint256"
        }
      ],
      "name": "setCost",
      "outputs": [],
      "stateMutability": "nonpayable",
      "type": "function"
    },
    {
      "inputs": [
        {
          "internalType": "uint256",
          "name": "_newmaxMintAmount",
          "type": "uint256"
        }
      ],
      "name": "setmaxMintAmount",
      "outputs": [],
      "stateMutability": "nonpayable",
      "type": "function"
    },
    {
      "inputs": [
        {
          "internalType": "bytes4",
          "name": "interfaceId",
          "type": "bytes4"
        }
      ],
      "name": "supportsInterface",
      "outputs": [
        {
          "internalType": "bool",
          "name": "",
          "type": "bool"
        }
      ],
      "stateMutability": "view",
      "type": "function"
    },
    {
      "inputs": [],
      "name": "symbol",
      "outputs": [
        {
          "internalType": "string",
          "name": "",
          "type": "string"
        }
      ],
      "stateMutability": "view",
      "type": "function"
    },
    {
      "inputs": [
        {
          "internalType": "uint256",
          "name": "index",
          "type": "uint256"
        }
      ],
      "name": "tokenByIndex",
      "outputs": [
        {
          "internalType": "uint256",
          "name": "",
          "type": "uint256"
        }
      ],
      "stateMutability": "view",
      "type": "function"
    },
    {
      "inputs": [
        {
          "internalType": "address",
          "name": "owner",
          "type": "address"
        },
        {
          "internalType": "uint256",
          "name": "index",
          "type": "uint256"
        }
      ],
      "name": "tokenOfOwnerByIndex",
      "outputs": [
        {
          "internalType": "uint256",
          "name": "",
          "type": "uint256"
        }
      ],
      "stateMutability": "view",
      "type": "function"
    },
    {
      "inputs": [
        {
          "internalType": "uint256",
          "name": "tokenId",
          "type": "uint256"
        }
      ],
      "name": "tokenURI",
      "outputs": [
        {
          "internalType": "string",
          "name": "",
          "type": "string"
        }
      ],
      "stateMutability": "view",
      "type": "function"
    },
    {
      "inputs": [],
      "name": "totalSupply",
      "outputs": [
        {
          "internalType": "uint256",
          "name": "",
          "type": "uint256"
        }
      ],
      "stateMutability": "view",
      "type": "function"
    },
    {
      "inputs": [
        {
          "internalType": "address",
          "name": "from",
          "type": "address"
        },
        {
          "internalType": "address",
          "name": "to",
          "type": "address"
        },
        {
          "internalType": "uint256",
          "name": "tokenId",
          "type": "uint256"
        }
      ],
      "name": "transferFrom",
      "outputs": [],
      "stateMutability": "nonpayable",
      "type": "function"
    },
    {
      "inputs": [
        {
          "internalType": "address",
          "name": "newOwner",
          "type": "address"
        }
      ],
      "name": "transferOwnership",
      "outputs": [],
      "stateMutability": "nonpayable",
      "type": "function"
    },
    {
      "inputs": [
        {
          "internalType": "address",
          "name": "_owner",
          "type": "address"
        }
      ],
      "name": "walletOfOwner",
      "outputs": [
        {
          "internalType": "uint256[]",
          "name": "",
          "type": "uint256[]"
        }
      ],
      "stateMutability": "view",
      "type": "function"
    },
    {
      "inputs": [
        {
          "internalType": "address",
          "name": "_user",
          "type": "address"
        }
      ],
      "name": "whitelistUser",
      "outputs": [],
      "stateMutability": "nonpayable",
      "type": "function"
    },
    {
      "inputs": [
        {
          "internalType": "address",
          "name": "",
          "type": "address"
        }
      ],
      "name": "whitelisted",
      "outputs": [
        {
          "internalType": "bool",
          "name": "",
          "type": "bool"
        }
      ],
      "stateMutability": "view",
      "type": "function"
    },
    {
      "inputs": [],
      "name": "withdraw",
      "outputs": [],
      "stateMutability": "payable",
      "type": "function"
    }
  ],
  "bytecode": "0x60806040526000600a60146101000a81548160ff0219169083151502179055506040518060600160405280603581526020016200656e60359139600b908162000049919062001137565b506040518060400160405280600581526020017f2e6a736f6e000000000000000000000000000000000000000000000000000000815250600d908162000090919062001137565b5066470de4df820000600e55612710600f5560146010556000601160006101000a81548160ff021916908315150217905550348015620000cf57600080fd5b50604051620065a3380380620065a38339818101604052810190620000f5919062001382565b6040518060400160405280600a81526020017f506f6f722047686f7374000000000000000000000000000000000000000000008152506040518060400160405280600281526020017f5047000000000000000000000000000000000000000000000000000000000000815250816000908162000172919062001137565b50806001908162000184919062001137565b505050620001a76200019b620001d260201b60201c565b620001da60201b60201c565b620001b881620002a060201b60201c565b620001cb3360146200034460201b60201c565b506200199b565b600033905090565b6000600a60009054906101000a900473ffffffffffffffffffffffffffffffffffffffff16905081600a60006101000a81548173ffffffffffffffffffffffffffffffffffffffff021916908373ffffffffffffffffffffffffffffffffffffffff1602179055508173ffffffffffffffffffffffffffffffffffffffff168173ffffffffffffffffffffffffffffffffffffffff167f8be0079c531659141344cd1fd0a4f28419497f9722a3daafe3b4186f6b6457e060405160405180910390a35050565b620002b0620001d260201b60201c565b73ffffffffffffffffffffffffffffffffffffffff16620002d6620004b360201b60201c565b73ffffffffffffffffffffffffffffffffffffffff16146200032f576040517f08c379a0000000000000000000000000000000000000000000000000000000008152600401620003269062001434565b60405180910390fd5b80600c908162000340919062001137565b5050565b600062000356620004dd60201b60201c565b9050601160009054906101000a900460ff16156200037357600080fd5b600082116200038157600080fd5b6010548211156200039157600080fd5b600f548282620003a2919062001485565b1115620003ae57600080fd5b620003be620004b360201b60201c565b73ffffffffffffffffffffffffffffffffffffffff163373ffffffffffffffffffffffffffffffffffffffff1614620004695760011515601260003373ffffffffffffffffffffffffffffffffffffffff1673ffffffffffffffffffffffffffffffffffffffff16815260200190815260200160002060009054906101000a900460ff16151514620004685781600e546200045a9190620014c0565b3410156200046757600080fd5b5b5b6000600190505b828111620004ad57620004978482846200048b919062001485565b620004ea60201b60201c565b8080620004a4906200150b565b91505062000470565b50505050565b6000600a60009054906101000a900473ffffffffffffffffffffffffffffffffffffffff16905090565b6000600880549050905090565b6200050c8282604051806020016040528060008152506200051060201b60201c565b5050565b6200052283836200057e60201b60201c565b6200053760008484846200076360201b60201c565b62000579576040517f08c379a00000000000000000000000000000000000000000000000000000000081526004016200057090620015ce565b60405180910390fd5b505050565b600073ffffffffffffffffffffffffffffffffffffffff168273ffffffffffffffffffffffffffffffffffffffff1603620005f0576040517f08c379a0000000000000000000000000000000000000000000000000000000008152600401620005e79062001640565b60405180910390fd5b62000601816200090c60201b60201c565b1562000644576040517f08c379a00000000000000000000000000000000000000000000000000000000081526004016200063b90620016b2565b60405180910390fd5b62000658600083836200097860201b60201c565b6001600360008473ffffffffffffffffffffffffffffffffffffffff1673ffffffffffffffffffffffffffffffffffffffff1681526020019081526020016000206000828254620006aa919062001485565b92505081905550816002600083815260200190815260200160002060006101000a81548173ffffffffffffffffffffffffffffffffffffffff021916908373ffffffffffffffffffffffffffffffffffffffff160217905550808273ffffffffffffffffffffffffffffffffffffffff16600073ffffffffffffffffffffffffffffffffffffffff167fddf252ad1be2c89b69c2b068fc378daa952ba7f163c4a11628f55a4df523b3ef60405160405180910390a45050565b6000620007918473ffffffffffffffffffffffffffffffffffffffff1662000abd60201b620021821760201c565b15620008ff578373ffffffffffffffffffffffffffffffffffffffff1663150b7a02620007c3620001d260201b60201c565b8786866040518563ffffffff1660e01b8152600401620007e7949392919062001787565b6020604051808303816000875af19250505080156200082657506040513d601f19601f8201168201806040525081019062000823919062001838565b60015b620008ae573d806000811462000859576040519150601f19603f3d011682016040523d82523d6000602084013e6200085e565b606091505b506000815103620008a6576040517f08c379a00000000000000000000000000000000000000000000000000000000081526004016200089d90620015ce565b60405180910390fd5b805181602001fd5b63150b7a0260e01b7bffffffffffffffffffffffffffffffffffffffffffffffffffffffff1916817bffffffffffffffffffffffffffffffffffffffffffffffffffffffff19161491505062000904565b600190505b949350505050565b60008073ffffffffffffffffffffffffffffffffffffffff166002600084815260200190815260200160002060009054906101000a900473ffffffffffffffffffffffffffffffffffffffff1673ffffffffffffffffffffffffffffffffffffffff1614159050919050565b6200099083838362000ad060201b620021951760201c565b600073ffffffffffffffffffffffffffffffffffffffff168373ffffffffffffffffffffffffffffffffffffffff1603620009dc57620009d68162000ad560201b60201c565b62000a24565b8173ffffffffffffffffffffffffffffffffffffffff168373ffffffffffffffffffffffffffffffffffffffff161462000a235762000a22838262000b1e60201b60201c565b5b5b600073ffffffffffffffffffffffffffffffffffffffff168273ffffffffffffffffffffffffffffffffffffffff160362000a705762000a6a8162000c9b60201b60201c565b62000ab8565b8273ffffffffffffffffffffffffffffffffffffffff168273ffffffffffffffffffffffffffffffffffffffff161462000ab75762000ab6828262000d7760201b60201c565b5b5b505050565b600080823b905060008111915050919050565b505050565b6008805490506009600083815260200190815260200160002081905550600881908060018154018082558091505060019003906000526020600020016000909190919091505550565b6000600162000b388462000e0360201b620016aa1760201c565b62000b4491906200186a565b905060006007600084815260200190815260200160002054905081811462000c2a576000600660008673ffffffffffffffffffffffffffffffffffffffff1673ffffffffffffffffffffffffffffffffffffffff168152602001908152602001600020600084815260200190815260200160002054905080600660008773ffffffffffffffffffffffffffffffffffffffff1673ffffffffffffffffffffffffffffffffffffffff168152602001908152602001600020600084815260200190815260200160002081905550816007600083815260200190815260200160002081905550505b6007600084815260200190815260200160002060009055600660008573ffffffffffffffffffffffffffffffffffffffff1673ffffffffffffffffffffffffffffffffffffffff16815260200190815260200160002060008381526020019081526020016000206000905550505050565b6000600160088054905062000cb191906200186a565b905060006009600084815260200190815260200160002054905060006008838154811062000ce45762000ce3620018a5565b5b90600052602060002001549050806008838154811062000d095762000d08620018a5565b5b90600052602060002001819055508160096000838152602001908152602001600020819055506009600085815260200190815260200160002060009055600880548062000d5b5762000d5a620018d4565b5b6001900381819060005260206000200160009055905550505050565b600062000d8f8362000e0360201b620016aa1760201c565b905081600660008573ffffffffffffffffffffffffffffffffffffffff1673ffffffffffffffffffffffffffffffffffffffff168152602001908152602001600020600083815260200190815260200160002081905550806007600084815260200190815260200160002081905550505050565b60008073ffffffffffffffffffffffffffffffffffffffff168273ffffffffffffffffffffffffffffffffffffffff160362000e76576040517f08c379a000000000000000000000000000000000000000000000000000000000815260040162000e6d9062001979565b60405180910390fd5b600360008373ffffffffffffffffffffffffffffffffffffffff1673ffffffffffffffffffffffffffffffffffffffff168152602001908152602001600020549050919050565b600081519050919050565b7f4e487b7100000000000000000000000000000000000000000000000000000000600052604160045260246000fd5b7f4e487b7100000000000000000000000000000000000000000000000000000000600052602260045260246000fd5b6000600282049050600182168062000f3f57607f821691505b60208210810362000f555762000f5462000ef7565b5b50919050565b60008190508160005260206000209050919050565b60006020601f8301049050919050565b600082821b905092915050565b60006008830262000fbf7fffffffffffffffffffffffffffffffffffffffffffffffffffffffffffffffff8262000f80565b62000fcb868362000f80565b95508019841693508086168417925050509392505050565b6000819050919050565b6000819050919050565b600062001018620010126200100c8462000fe3565b62000fed565b62000fe3565b9050919050565b6000819050919050565b620010348362000ff7565b6200104c62001043826200101f565b84845462000f8d565b825550505050565b600090565b6200106362001054565b6200107081848462001029565b505050565b5b8181101562001098576200108c60008262001059565b60018101905062001076565b5050565b601f821115620010e757620010b18162000f5b565b620010bc8462000f70565b81016020851015620010cc578190505b620010e4620010db8562000f70565b83018262001075565b50505b505050565b600082821c905092915050565b60006200110c60001984600802620010ec565b1980831691505092915050565b6000620011278383620010f9565b9150826002028217905092915050565b620011428262000ebd565b67ffffffffffffffff8111156200115e576200115d62000ec8565b5b6200116a825462000f26565b620011778282856200109c565b600060209050601f831160018114620011af57600084156200119a578287015190505b620011a6858262001119565b86555062001216565b601f198416620011bf8662000f5b565b60005b82811015620011e957848901518255600182019150602085019450602081019050620011c2565b8683101562001209578489015162001205601f891682620010f9565b8355505b6001600288020188555050505b505050505050565b6000604051905090565b600080fd5b600080fd5b600080fd5b600080fd5b6000601f19601f8301169050919050565b62001258826200123c565b810181811067ffffffffffffffff821117156200127a576200127962000ec8565b5b80604052505050565b60006200128f6200121e565b90506200129d82826200124d565b919050565b600067ffffffffffffffff821115620012c057620012bf62000ec8565b5b620012cb826200123c565b9050602081019050919050565b60005b83811015620012f8578082015181840152602081019050620012db565b60008484015250505050565b60006200131b6200131584620012a2565b62001283565b9050828152602081018484840111156200133a576200133962001237565b5b62001347848285620012d8565b509392505050565b600082601f83011262001367576200136662001232565b5b81516200137984826020860162001304565b91505092915050565b6000602082840312156200139b576200139a62001228565b5b600082015167ffffffffffffffff811115620013bc57620013bb6200122d565b5b620013ca848285016200134f565b91505092915050565b600082825260208201905092915050565b7f4f776e61626c653a2063616c6c6572206973206e6f7420746865206f776e6572600082015250565b60006200141c602083620013d3565b91506200142982620013e4565b602082019050919050565b600060208201905081810360008301526200144f816200140d565b9050919050565b7f4e487b7100000000000000000000000000000000000000000000000000000000600052601160045260246000fd5b6000620014928262000fe3565b91506200149f8362000fe3565b9250828201905080821115620014ba57620014b962001456565b5b92915050565b6000620014cd8262000fe3565b9150620014da8362000fe3565b9250828202620014ea8162000fe3565b9150828204841483151762001504576200150362001456565b5b5092915050565b6000620015188262000fe3565b91507fffffffffffffffffffffffffffffffffffffffffffffffffffffffffffffffff82036200154d576200154c62001456565b5b600182019050919050565b7f4552433732313a207472616e7366657220746f206e6f6e20455243373231526560008201527f63656976657220696d706c656d656e7465720000000000000000000000000000602082015250565b6000620015b6603283620013d3565b9150620015c38262001558565b604082019050919050565b60006020820190508181036000830152620015e981620015a7565b9050919050565b7f4552433732313a206d696e7420746f20746865207a65726f2061646472657373600082015250565b600062001628602083620013d3565b91506200163582620015f0565b602082019050919050565b600060208201905081810360008301526200165b8162001619565b9050919050565b7f4552433732313a20746f6b656e20616c7265616479206d696e74656400000000600082015250565b60006200169a601c83620013d3565b9150620016a78262001662565b602082019050919050565b60006020820190508181036000830152620016cd816200168b565b9050919050565b600073ffffffffffffffffffffffffffffffffffffffff82169050919050565b60006200170182620016d4565b9050919050565b6200171381620016f4565b82525050565b620017248162000fe3565b82525050565b600081519050919050565b600082825260208201905092915050565b600062001753826200172a565b6200175f818562001735565b935062001771818560208601620012d8565b6200177c816200123c565b840191505092915050565b60006080820190506200179e600083018762001708565b620017ad602083018662001708565b620017bc604083018562001719565b8181036060830152620017d0818462001746565b905095945050505050565b60007fffffffff0000000000000000000000000000000000000000000000000000000082169050919050565b6200181281620017db565b81146200181e57600080fd5b50565b600081519050620018328162001807565b92915050565b60006020828403121562001851576200185062001228565b5b6000620018618482850162001821565b91505092915050565b6000620018778262000fe3565b9150620018848362000fe3565b92508282039050818111156200189f576200189e62001456565b5b92915050565b7f4e487b7100000000000000000000000000000000000000000000000000000000600052603260045260246000fd5b7f4e487b7100000000000000000000000000000000000000000000000000000000600052603160045260246000fd5b7f4552433732313a2062616c616e636520717565727920666f7220746865207a6560008201527f726f206164647265737300000000000000000000000000000000000000000000602082015250565b600062001961602a83620013d3565b91506200196e8262001903565b604082019050919050565b60006020820190508181036000830152620019948162001952565b9050919050565b614bc380620019ab6000396000f3fe6080604052600436106102465760003560e01c806355f804b311610139578063b2f3e85e116100b6578063d936547e1161007a578063d936547e14610870578063da3ef23f146108ad578063e6a9e577146108d6578063e985e9c5146108ff578063ed931e171461093c578063f2fde38b1461096557610246565b8063b2f3e85e1461078b578063b88d4fde146107b4578063c6682862146107dd578063c87b56dd14610808578063d5abeb011461084557610246565b8063715018a6116100fd578063715018a6146106cc5780637f00c7a6146106e35780638da5cb5b1461070c57806395d89b4114610737578063a22cb4651461076257610246565b806355f804b3146105d35780635c975abb146105fc5780636352211e146106275780636c0360eb1461066457806370a082311461068f57610246565b806330b2264e116101c7578063438b63001161018b578063438b6300146104de57806344a0d68a1461051b5780634a4c560d146105445780634f6ccce71461056d578063546857c7146105aa57610246565b806330b2264e1461042957806330cc7ae0146104665780633ccfd60b1461048f57806340c10f191461049957806342842e0e146104b557610246565b806313faede61161020e57806313faede61461034257806318160ddd1461036d578063239c70ae1461039857806323b872dd146103c35780632f745c59146103ec57610246565b806301ffc9a71461024b57806302329a291461028857806306fdde03146102b1578063081812fc146102dc578063095ea7b314610319575b600080fd5b34801561025757600080fd5b50610272600480360381019061026d91906132b1565b61098e565b60405161027f91906132f9565b60405180910390f35b34801561029457600080fd5b506102af60048036038101906102aa9190613340565b610a08565b005b3480156102bd57600080fd5b506102c6610aa1565b6040516102d391906133fd565b60405180910390f35b3480156102e857600080fd5b5061030360048036038101906102fe9190613455565b610b33565b60405161031091906134c3565b60405180910390f35b34801561032557600080fd5b50610340600480360381019061033b919061350a565b610bb8565b005b34801561034e57600080fd5b50610357610ccf565b6040516103649190613559565b60405180910390f35b34801561037957600080fd5b50610382610cd5565b60405161038f9190613559565b60405180910390f35b3480156103a457600080fd5b506103ad610ce2565b6040516103ba9190613559565b60405180910390f35b3480156103cf57600080fd5b506103ea60048036038101906103e59190613574565b610ce8565b005b3480156103f857600080fd5b50610413600480360381019061040e919061350a565b610d48565b6040516104209190613559565b60405180910390f35b34801561043557600080fd5b50610450600480360381019061044b91906135c7565b610ded565b60405161045d91906132f9565b60405180910390f35b34801561047257600080fd5b5061048d600480360381019061048891906135c7565b610e0d565b005b610497610ee4565b005b6104b360048036038101906104ae919061350a565b610fd9565b005b3480156104c157600080fd5b506104dc60048036038101906104d79190613574565b61111f565b005b3480156104ea57600080fd5b50610505600480360381019061050091906135c7565b61113f565b60405161051291906136b2565b60405180910390f35b34801561052757600080fd5b50610542600480360381019061053d9190613455565b6111ed565b005b34801561055057600080fd5b5061056b600480360381019061056691906135c7565b611273565b005b34801561057957600080fd5b50610594600480360381019061058f9190613455565b61134a565b6040516105a19190613559565b60405180910390f35b3480156105b657600080fd5b506105d160048036038101906105cc919061380a565b6113bb565b005b3480156105df57600080fd5b506105fa60048036038101906105f591906138ed565b6114c9565b005b34801561060857600080fd5b50610611611558565b60405161061e91906132f9565b60405180910390f35b34801561063357600080fd5b5061064e60048036038101906106499190613455565b61156b565b60405161065b91906134c3565b60405180910390f35b34801561067057600080fd5b5061067961161c565b60405161068691906133fd565b60405180910390f35b34801561069b57600080fd5b506106b660048036038101906106b191906135c7565b6116aa565b6040516106c39190613559565b60405180910390f35b3480156106d857600080fd5b506106e1611761565b005b3480156106ef57600080fd5b5061070a60048036038101906107059190613455565b6117e9565b005b34801561071857600080fd5b5061072161186f565b60405161072e91906134c3565b60405180910390f35b34801561074357600080fd5b5061074c611899565b60405161075991906133fd565b60405180910390f35b34801561076e57600080fd5b5061078960048036038101906107849190613936565b61192b565b005b34801561079757600080fd5b506107b260048036038101906107ad91906135c7565b611aab565b005b3480156107c057600080fd5b506107db60048036038101906107d69190613a17565b611b82565b005b3480156107e957600080fd5b506107f2611be4565b6040516107ff91906133fd565b60405180910390f35b34801561081457600080fd5b5061082f600480360381019061082a9190613455565b611c72565b60405161083c91906133fd565b60405180910390f35b34801561085157600080fd5b5061085a611dd2565b6040516108679190613559565b60405180910390f35b34801561087c57600080fd5b50610897600480360381019061089291906135c7565b611dd8565b6040516108a491906132f9565b60405180910390f35b3480156108b957600080fd5b506108d460048036038101906108cf91906138ed565b611df8565b005b3480156108e257600080fd5b506108fd60048036038101906108f89190613340565b611e87565b005b34801561090b57600080fd5b5061092660048036038101906109219190613a9a565b611f20565b60405161093391906132f9565b60405180910390f35b34801561094857600080fd5b50610963600480360381019061095e91906135c7565b611fb4565b005b34801561097157600080fd5b5061098c600480360381019061098791906135c7565b61208b565b005b60007f780e9d63000000000000000000000000000000000000000000000000000000007bffffffffffffffffffffffffffffffffffffffffffffffffffffffff1916827bffffffffffffffffffffffffffffffffffffffffffffffffffffffff19161480610a015750610a008261219a565b5b9050919050565b610a1061227c565b73ffffffffffffffffffffffffffffffffffffffff16610a2e61186f565b73ffffffffffffffffffffffffffffffffffffffff1614610a84576040517f08c379a0000000000000000000000000000000000000000000000000000000008152600401610a7b90613b26565b60405180910390fd5b80601160006101000a81548160ff02191690831515021790555050565b606060008054610ab090613b75565b80601f0160208091040260200160405190810160405280929190818152602001828054610adc90613b75565b8015610b295780601f10610afe57610100808354040283529160200191610b29565b820191906000526020600020905b815481529060010190602001808311610b0c57829003601f168201915b5050505050905090565b6000610b3e82612284565b610b7d576040517f08c379a0000000000000000000000000000000000000000000000000000000008152600401610b7490613c18565b60405180910390fd5b6004600083815260200190815260200160002060009054906101000a900473ffffffffffffffffffffffffffffffffffffffff169050919050565b6000610bc38261156b565b90508073ffffffffffffffffffffffffffffffffffffffff168373ffffffffffffffffffffffffffffffffffffffff1603610c33576040517f08c379a0000000000000000000000000000000000000000000000000000000008152600401610c2a90613caa565b60405180910390fd5b8073ffffffffffffffffffffffffffffffffffffffff16610c5261227c565b73ffffffffffffffffffffffffffffffffffffffff161480610c815750610c8081610c7b61227c565b611f20565b5b610cc0576040517f08c379a0000000000000000000000000000000000000000000000000000000008152600401610cb790613d3c565b60405180910390fd5b610cca83836122f0565b505050565b600e5481565b6000600880549050905090565b60105481565b610cf9610cf361227c565b826123a9565b610d38576040517f08c379a0000000000000000000000000000000000000000000000000000000008152600401610d2f90613dce565b60405180910390fd5b610d43838383612487565b505050565b6000610d53836116aa565b8210610d94576040517f08c379a0000000000000000000000000000000000000000000000000000000008152600401610d8b90613e60565b60405180910390fd5b600660008473ffffffffffffffffffffffffffffffffffffffff1673ffffffffffffffffffffffffffffffffffffffff168152602001908152602001600020600083815260200190815260200160002054905092915050565b60136020528060005260406000206000915054906101000a900460ff1681565b610e1561227c565b73ffffffffffffffffffffffffffffffffffffffff16610e3361186f565b73ffffffffffffffffffffffffffffffffffffffff1614610e89576040517f08c379a0000000000000000000000000000000000000000000000000000000008152600401610e8090613b26565b60405180910390fd5b6000601260008373ffffffffffffffffffffffffffffffffffffffff1673ffffffffffffffffffffffffffffffffffffffff16815260200190815260200160002060006101000a81548160ff02191690831515021790555050565b610eec61227c565b73ffffffffffffffffffffffffffffffffffffffff16610f0a61186f565b73ffffffffffffffffffffffffffffffffffffffff1614610f60576040517f08c379a0000000000000000000000000000000000000000000000000000000008152600401610f5790613b26565b60405180910390fd5b60003373ffffffffffffffffffffffffffffffffffffffff1647604051610f8690613eb1565b60006040518083038185875af1925050503d8060008114610fc3576040519150601f19603f3d011682016040523d82523d6000602084013e610fc8565b606091505b5050905080610fd657600080fd5b50565b6000610fe3610cd5565b9050601160009054906101000a900460ff1615610fff57600080fd5b6000821161100c57600080fd5b60105482111561101b57600080fd5b600f54828261102a9190613ef5565b111561103557600080fd5b61103d61186f565b73ffffffffffffffffffffffffffffffffffffffff163373ffffffffffffffffffffffffffffffffffffffff16146110e35760011515601260003373ffffffffffffffffffffffffffffffffffffffff1673ffffffffffffffffffffffffffffffffffffffff16815260200190815260200160002060009054906101000a900460ff161515146110e25781600e546110d59190613f29565b3410156110e157600080fd5b5b5b6000600190505b828111611119576111068482846111019190613ef5565b6126e2565b808061111190613f6b565b9150506110ea565b50505050565b61113a83838360405180602001604052806000815250611b82565b505050565b6060600061114c836116aa565b905060008167ffffffffffffffff81111561116a576111696136d9565b5b6040519080825280602002602001820160405280156111985781602001602082028036833780820191505090505b50905060005b828110156111e2576111b08582610d48565b8282815181106111c3576111c2613fb3565b5b60200260200101818152505080806111da90613f6b565b91505061119e565b508092505050919050565b6111f561227c565b73ffffffffffffffffffffffffffffffffffffffff1661121361186f565b73ffffffffffffffffffffffffffffffffffffffff1614611269576040517f08c379a000000000000000000000000000000000000000000000000000000000815260040161126090613b26565b60405180910390fd5b80600e8190555050565b61127b61227c565b73ffffffffffffffffffffffffffffffffffffffff1661129961186f565b73ffffffffffffffffffffffffffffffffffffffff16146112ef576040517f08c379a00000000000000000000000000000000000000000000000000000000081526004016112e690613b26565b60405180910390fd5b6001601260008373ffffffffffffffffffffffffffffffffffffffff1673ffffffffffffffffffffffffffffffffffffffff16815260200190815260200160002060006101000a81548160ff02191690831515021790555050565b6000611354610cd5565b8210611395576040517f08c379a000000000000000000000000000000000000000000000000000000000815260040161138c90614054565b60405180910390fd5b600882815481106113a9576113a8613fb3565b5b90600052602060002001549050919050565b6113c361227c565b73ffffffffffffffffffffffffffffffffffffffff166113e161186f565b73ffffffffffffffffffffffffffffffffffffffff1614611437576040517f08c379a000000000000000000000000000000000000000000000000000000000815260040161142e90613b26565b60405180910390fd5b60005b60028110156114c55760016013600084846064811061145c5761145b613fb3565b5b602002015173ffffffffffffffffffffffffffffffffffffffff1673ffffffffffffffffffffffffffffffffffffffff16815260200190815260200160002060006101000a81548160ff02191690831515021790555080806114bd90613f6b565b91505061143a565b5050565b6114d161227c565b73ffffffffffffffffffffffffffffffffffffffff166114ef61186f565b73ffffffffffffffffffffffffffffffffffffffff1614611545576040517f08c379a000000000000000000000000000000000000000000000000000000000815260040161153c90613b26565b60405180910390fd5b80600c90816115549190614220565b5050565b601160009054906101000a900460ff1681565b6000806002600084815260200190815260200160002060009054906101000a900473ffffffffffffffffffffffffffffffffffffffff169050600073ffffffffffffffffffffffffffffffffffffffff168173ffffffffffffffffffffffffffffffffffffffff1603611613576040517f08c379a000000000000000000000000000000000000000000000000000000000815260040161160a90614364565b60405180910390fd5b80915050919050565b600c805461162990613b75565b80601f016020809104026020016040519081016040528092919081815260200182805461165590613b75565b80156116a25780601f10611677576101008083540402835291602001916116a2565b820191906000526020600020905b81548152906001019060200180831161168557829003601f168201915b505050505081565b60008073ffffffffffffffffffffffffffffffffffffffff168273ffffffffffffffffffffffffffffffffffffffff160361171a576040517f08c379a0000000000000000000000000000000000000000000000000000000008152600401611711906143f6565b60405180910390fd5b600360008373ffffffffffffffffffffffffffffffffffffffff1673ffffffffffffffffffffffffffffffffffffffff168152602001908152602001600020549050919050565b61176961227c565b73ffffffffffffffffffffffffffffffffffffffff1661178761186f565b73ffffffffffffffffffffffffffffffffffffffff16146117dd576040517f08c379a00000000000000000000000000000000000000000000000000000000081526004016117d490613b26565b60405180910390fd5b6117e76000612700565b565b6117f161227c565b73ffffffffffffffffffffffffffffffffffffffff1661180f61186f565b73ffffffffffffffffffffffffffffffffffffffff1614611865576040517f08c379a000000000000000000000000000000000000000000000000000000000815260040161185c90613b26565b60405180910390fd5b8060108190555050565b6000600a60009054906101000a900473ffffffffffffffffffffffffffffffffffffffff16905090565b6060600180546118a890613b75565b80601f01602080910402602001604051908101604052809291908181526020018280546118d490613b75565b80156119215780601f106118f657610100808354040283529160200191611921565b820191906000526020600020905b81548152906001019060200180831161190457829003601f168201915b5050505050905090565b61193361227c565b73ffffffffffffffffffffffffffffffffffffffff168273ffffffffffffffffffffffffffffffffffffffff16036119a0576040517f08c379a000000000000000000000000000000000000000000000000000000000815260040161199790614462565b60405180910390fd5b80600560006119ad61227c565b73ffffffffffffffffffffffffffffffffffffffff1673ffffffffffffffffffffffffffffffffffffffff16815260200190815260200160002060008473ffffffffffffffffffffffffffffffffffffffff1673ffffffffffffffffffffffffffffffffffffffff16815260200190815260200160002060006101000a81548160ff0219169083151502179055508173ffffffffffffffffffffffffffffffffffffffff16611a5a61227c565b73ffffffffffffffffffffffffffffffffffffffff167f17307eab39ab6107e8899845ad3d59bd9653f200f220920489ca2b5937696c3183604051611a9f91906132f9565b60405180910390a35050565b611ab361227c565b73ffffffffffffffffffffffffffffffffffffffff16611ad161186f565b73ffffffffffffffffffffffffffffffffffffffff1614611b27576040517f08c379a0000000000000000000000000000000000000000000000000000000008152600401611b1e90613b26565b60405180910390fd5b6001601360008373ffffffffffffffffffffffffffffffffffffffff1673ffffffffffffffffffffffffffffffffffffffff16815260200190815260200160002060006101000a81548160ff02191690831515021790555050565b611b93611b8d61227c565b836123a9565b611bd2576040517f08c379a0000000000000000000000000000000000000000000000000000000008152600401611bc990613dce565b60405180910390fd5b611bde848484846127c6565b50505050565b600d8054611bf190613b75565b80601f0160208091040260200160405190810160405280929190818152602001828054611c1d90613b75565b8015611c6a5780601f10611c3f57610100808354040283529160200191611c6a565b820191906000526020600020905b815481529060010190602001808311611c4d57829003601f168201915b505050505081565b6060611c7d82612284565b611cbc576040517f08c379a0000000000000000000000000000000000000000000000000000000008152600401611cb3906144f4565b60405180910390fd5b6000611cc6612822565b9050600a60149054906101000a900460ff1615611d3e576000600c8054611cec90613b75565b905011611d085760405180602001604052806000815250611d36565b80611d12846128b4565b600d604051602001611d26939291906145d3565b6040516020818303038152906040525b915050611dcd565b600b8054611d4b90613b75565b80601f0160208091040260200160405190810160405280929190818152602001828054611d7790613b75565b8015611dc45780601f10611d9957610100808354040283529160200191611dc4565b820191906000526020600020905b815481529060010190602001808311611da757829003601f168201915b50505050509150505b919050565b600f5481565b60126020528060005260406000206000915054906101000a900460ff1681565b611e0061227c565b73ffffffffffffffffffffffffffffffffffffffff16611e1e61186f565b73ffffffffffffffffffffffffffffffffffffffff1614611e74576040517f08c379a0000000000000000000000000000000000000000000000000000000008152600401611e6b90613b26565b60405180910390fd5b80600d9081611e839190614220565b5050565b611e8f61227c565b73ffffffffffffffffffffffffffffffffffffffff16611ead61186f565b73ffffffffffffffffffffffffffffffffffffffff1614611f03576040517f08c379a0000000000000000000000000000000000000000000000000000000008152600401611efa90613b26565b60405180910390fd5b80600a60146101000a81548160ff02191690831515021790555050565b6000600560008473ffffffffffffffffffffffffffffffffffffffff1673ffffffffffffffffffffffffffffffffffffffff16815260200190815260200160002060008373ffffffffffffffffffffffffffffffffffffffff1673ffffffffffffffffffffffffffffffffffffffff16815260200190815260200160002060009054906101000a900460ff16905092915050565b611fbc61227c565b73ffffffffffffffffffffffffffffffffffffffff16611fda61186f565b73ffffffffffffffffffffffffffffffffffffffff1614612030576040517f08c379a000000000000000000000000000000000000000000000000000000000815260040161202790613b26565b60405180910390fd5b6000601360008373ffffffffffffffffffffffffffffffffffffffff1673ffffffffffffffffffffffffffffffffffffffff16815260200190815260200160002060006101000a81548160ff02191690831515021790555050565b61209361227c565b73ffffffffffffffffffffffffffffffffffffffff166120b161186f565b73ffffffffffffffffffffffffffffffffffffffff1614612107576040517f08c379a00000000000000000000000000000000000000000000000000000000081526004016120fe90613b26565b60405180910390fd5b600073ffffffffffffffffffffffffffffffffffffffff168173ffffffffffffffffffffffffffffffffffffffff1603612176576040517f08c379a000000000000000000000000000000000000000000000000000000000815260040161216d90614676565b60405180910390fd5b61217f81612700565b50565b600080823b905060008111915050919050565b505050565b60007f80ac58cd000000000000000000000000000000000000000000000000000000007bffffffffffffffffffffffffffffffffffffffffffffffffffffffff1916827bffffffffffffffffffffffffffffffffffffffffffffffffffffffff1916148061226557507f5b5e139f000000000000000000000000000000000000000000000000000000007bffffffffffffffffffffffffffffffffffffffffffffffffffffffff1916827bffffffffffffffffffffffffffffffffffffffffffffffffffffffff1916145b80612275575061227482612a14565b5b9050919050565b600033905090565b60008073ffffffffffffffffffffffffffffffffffffffff166002600084815260200190815260200160002060009054906101000a900473ffffffffffffffffffffffffffffffffffffffff1673ffffffffffffffffffffffffffffffffffffffff1614159050919050565b816004600083815260200190815260200160002060006101000a81548173ffffffffffffffffffffffffffffffffffffffff021916908373ffffffffffffffffffffffffffffffffffffffff160217905550808273ffffffffffffffffffffffffffffffffffffffff166123638361156b565b73ffffffffffffffffffffffffffffffffffffffff167f8c5be1e5ebec7d5bd14f71427d1e84f3dd0314c0f7b2291e5b200ac8c7c3b92560405160405180910390a45050565b60006123b482612284565b6123f3576040517f08c379a00000000000000000000000000000000000000000000000000000000081526004016123ea90614708565b60405180910390fd5b60006123fe8361156b565b90508073ffffffffffffffffffffffffffffffffffffffff168473ffffffffffffffffffffffffffffffffffffffff16148061246d57508373ffffffffffffffffffffffffffffffffffffffff1661245584610b33565b73ffffffffffffffffffffffffffffffffffffffff16145b8061247e575061247d8185611f20565b5b91505092915050565b8273ffffffffffffffffffffffffffffffffffffffff166124a78261156b565b73ffffffffffffffffffffffffffffffffffffffff16146124fd576040517f08c379a00000000000000000000000000000000000000000000000000000000081526004016124f49061479a565b60405180910390fd5b600073ffffffffffffffffffffffffffffffffffffffff168273ffffffffffffffffffffffffffffffffffffffff160361256c576040517f08c379a00000000000000000000000000000000000000000000000000000000081526004016125639061482c565b60405180910390fd5b612577838383612a7e565b6125826000826122f0565b6001600360008573ffffffffffffffffffffffffffffffffffffffff1673ffffffffffffffffffffffffffffffffffffffff16815260200190815260200160002060008282546125d2919061484c565b925050819055506001600360008473ffffffffffffffffffffffffffffffffffffffff1673ffffffffffffffffffffffffffffffffffffffff16815260200190815260200160002060008282546126299190613ef5565b92505081905550816002600083815260200190815260200160002060006101000a81548173ffffffffffffffffffffffffffffffffffffffff021916908373ffffffffffffffffffffffffffffffffffffffff160217905550808273ffffffffffffffffffffffffffffffffffffffff168473ffffffffffffffffffffffffffffffffffffffff167fddf252ad1be2c89b69c2b068fc378daa952ba7f163c4a11628f55a4df523b3ef60405160405180910390a4505050565b6126fc828260405180602001604052806000815250612b90565b5050565b6000600a60009054906101000a900473ffffffffffffffffffffffffffffffffffffffff16905081600a60006101000a81548173ffffffffffffffffffffffffffffffffffffffff021916908373ffffffffffffffffffffffffffffffffffffffff1602179055508173ffffffffffffffffffffffffffffffffffffffff168173ffffffffffffffffffffffffffffffffffffffff167f8be0079c531659141344cd1fd0a4f28419497f9722a3daafe3b4186f6b6457e060405160405180910390a35050565b6127d1848484612487565b6127dd84848484612beb565b61281c576040517f08c379a0000000000000000000000000000000000000000000000000000000008152600401612813906148f2565b60405180910390fd5b50505050565b6060600c805461283190613b75565b80601f016020809104026020016040519081016040528092919081815260200182805461285d90613b75565b80156128aa5780601f1061287f576101008083540402835291602001916128aa565b820191906000526020600020905b81548152906001019060200180831161288d57829003601f168201915b5050505050905090565b6060600082036128fb576040518060400160405280600181526020017f30000000000000000000000000000000000000000000000000000000000000008152509050612a0f565b600082905060005b6000821461292d57808061291690613f6b565b915050600a826129269190614941565b9150612903565b60008167ffffffffffffffff811115612949576129486136d9565b5b6040519080825280601f01601f19166020018201604052801561297b5781602001600182028036833780820191505090505b5090505b60008514612a0857600182612994919061484c565b9150600a856129a39190614972565b60306129af9190613ef5565b60f81b8183815181106129c5576129c4613fb3565b5b60200101907effffffffffffffffffffffffffffffffffffffffffffffffffffffffffffff1916908160001a905350600a85612a019190614941565b945061297f565b8093505050505b919050565b60007f01ffc9a7000000000000000000000000000000000000000000000000000000007bffffffffffffffffffffffffffffffffffffffffffffffffffffffff1916827bffffffffffffffffffffffffffffffffffffffffffffffffffffffff1916149050919050565b612a89838383612195565b600073ffffffffffffffffffffffffffffffffffffffff168373ffffffffffffffffffffffffffffffffffffffff1603612acb57612ac681612d72565b612b0a565b8173ffffffffffffffffffffffffffffffffffffffff168373ffffffffffffffffffffffffffffffffffffffff1614612b0957612b088382612dbb565b5b5b600073ffffffffffffffffffffffffffffffffffffffff168273ffffffffffffffffffffffffffffffffffffffff1603612b4c57612b4781612f28565b612b8b565b8273ffffffffffffffffffffffffffffffffffffffff168273ffffffffffffffffffffffffffffffffffffffff1614612b8a57612b898282612ff9565b5b5b505050565b612b9a8383613078565b612ba76000848484612beb565b612be6576040517f08c379a0000000000000000000000000000000000000000000000000000000008152600401612bdd906148f2565b60405180910390fd5b505050565b6000612c0c8473ffffffffffffffffffffffffffffffffffffffff16612182565b15612d65578373ffffffffffffffffffffffffffffffffffffffff1663150b7a02612c3561227c565b8786866040518563ffffffff1660e01b8152600401612c5794939291906149f8565b6020604051808303816000875af1925050508015612c9357506040513d601f19601f82011682018060405250810190612c909190614a59565b60015b612d15573d8060008114612cc3576040519150601f19603f3d011682016040523d82523d6000602084013e612cc8565b606091505b506000815103612d0d576040517f08c379a0000000000000000000000000000000000000000000000000000000008152600401612d04906148f2565b60405180910390fd5b805181602001fd5b63150b7a0260e01b7bffffffffffffffffffffffffffffffffffffffffffffffffffffffff1916817bffffffffffffffffffffffffffffffffffffffffffffffffffffffff191614915050612d6a565b600190505b949350505050565b6008805490506009600083815260200190815260200160002081905550600881908060018154018082558091505060019003906000526020600020016000909190919091505550565b60006001612dc8846116aa565b612dd2919061484c565b9050600060076000848152602001908152602001600020549050818114612eb7576000600660008673ffffffffffffffffffffffffffffffffffffffff1673ffffffffffffffffffffffffffffffffffffffff168152602001908152602001600020600084815260200190815260200160002054905080600660008773ffffffffffffffffffffffffffffffffffffffff1673ffffffffffffffffffffffffffffffffffffffff168152602001908152602001600020600084815260200190815260200160002081905550816007600083815260200190815260200160002081905550505b6007600084815260200190815260200160002060009055600660008573ffffffffffffffffffffffffffffffffffffffff1673ffffffffffffffffffffffffffffffffffffffff16815260200190815260200160002060008381526020019081526020016000206000905550505050565b60006001600880549050612f3c919061484c565b9050600060096000848152602001908152602001600020549050600060088381548110612f6c57612f6b613fb3565b5b906000526020600020015490508060088381548110612f8e57612f8d613fb3565b5b906000526020600020018190555081600960008381526020019081526020016000208190555060096000858152602001908152602001600020600090556008805480612fdd57612fdc614a86565b5b6001900381819060005260206000200160009055905550505050565b6000613004836116aa565b905081600660008573ffffffffffffffffffffffffffffffffffffffff1673ffffffffffffffffffffffffffffffffffffffff168152602001908152602001600020600083815260200190815260200160002081905550806007600084815260200190815260200160002081905550505050565b600073ffffffffffffffffffffffffffffffffffffffff168273ffffffffffffffffffffffffffffffffffffffff16036130e7576040517f08c379a00000000000000000000000000000000000000000000000000000000081526004016130de90614b01565b60405180910390fd5b6130f081612284565b15613130576040517f08c379a000000000000000000000000000000000000000000000000000000000815260040161312790614b6d565b60405180910390fd5b61313c60008383612a7e565b6001600360008473ffffffffffffffffffffffffffffffffffffffff1673ffffffffffffffffffffffffffffffffffffffff168152602001908152602001600020600082825461318c9190613ef5565b92505081905550816002600083815260200190815260200160002060006101000a81548173ffffffffffffffffffffffffffffffffffffffff021916908373ffffffffffffffffffffffffffffffffffffffff160217905550808273ffffffffffffffffffffffffffffffffffffffff16600073ffffffffffffffffffffffffffffffffffffffff167fddf252ad1be2c89b69c2b068fc378daa952ba7f163c4a11628f55a4df523b3ef60405160405180910390a45050565b6000604051905090565b600080fd5b600080fd5b60007fffffffff0000000000000000000000000000000000000000000000000000000082169050919050565b61328e81613259565b811461329957600080fd5b50565b6000813590506132ab81613285565b92915050565b6000602082840312156132c7576132c661324f565b5b60006132d58482850161329c565b91505092915050565b60008115159050919050565b6132f3816132de565b82525050565b600060208201905061330e60008301846132ea565b92915050565b61331d816132de565b811461332857600080fd5b50565b60008135905061333a81613314565b92915050565b6000602082840312156133565761335561324f565b5b60006133648482850161332b565b91505092915050565b600081519050919050565b600082825260208201905092915050565b60005b838110156133a757808201518184015260208101905061338c565b60008484015250505050565b6000601f19601f8301169050919050565b60006133cf8261336d565b6133d98185613378565b93506133e9818560208601613389565b6133f2816133b3565b840191505092915050565b6000602082019050818103600083015261341781846133c4565b905092915050565b6000819050919050565b6134328161341f565b811461343d57600080fd5b50565b60008135905061344f81613429565b92915050565b60006020828403121561346b5761346a61324f565b5b600061347984828501613440565b91505092915050565b600073ffffffffffffffffffffffffffffffffffffffff82169050919050565b60006134ad82613482565b9050919050565b6134bd816134a2565b82525050565b60006020820190506134d860008301846134b4565b92915050565b6134e7816134a2565b81146134f257600080fd5b50565b600081359050613504816134de565b92915050565b600080604083850312156135215761352061324f565b5b600061352f858286016134f5565b925050602061354085828601613440565b9150509250929050565b6135538161341f565b82525050565b600060208201905061356e600083018461354a565b92915050565b60008060006060848603121561358d5761358c61324f565b5b600061359b868287016134f5565b93505060206135ac868287016134f5565b92505060406135bd86828701613440565b9150509250925092565b6000602082840312156135dd576135dc61324f565b5b60006135eb848285016134f5565b91505092915050565b600081519050919050565b600082825260208201905092915050565b6000819050602082019050919050565b6136298161341f565b82525050565b600061363b8383613620565b60208301905092915050565b6000602082019050919050565b600061365f826135f4565b61366981856135ff565b935061367483613610565b8060005b838110156136a557815161368c888261362f565b975061369783613647565b925050600181019050613678565b5085935050505092915050565b600060208201905081810360008301526136cc8184613654565b905092915050565b600080fd5b7f4e487b7100000000000000000000000000000000000000000000000000000000600052604160045260246000fd5b613711826133b3565b810181811067ffffffffffffffff821117156137305761372f6136d9565b5b80604052505050565b6000613743613245565b905061374f8282613708565b919050565b600067ffffffffffffffff82111561376f5761376e6136d9565b5b602082029050919050565b600080fd5b600061379261378d84613754565b613739565b905080602084028301858111156137ac576137ab61377a565b5b835b818110156137d557806137c188826134f5565b8452602084019350506020810190506137ae565b5050509392505050565b600082601f8301126137f4576137f36136d4565b5b606461380184828561377f565b91505092915050565b6000610c8082840312156138215761382061324f565b5b600061382f848285016137df565b91505092915050565b600080fd5b600067ffffffffffffffff821115613858576138576136d9565b5b613861826133b3565b9050602081019050919050565b82818337600083830152505050565b600061389061388b8461383d565b613739565b9050828152602081018484840111156138ac576138ab613838565b5b6138b784828561386e565b509392505050565b600082601f8301126138d4576138d36136d4565b5b81356138e484826020860161387d565b91505092915050565b6000602082840312156139035761390261324f565b5b600082013567ffffffffffffffff81111561392157613920613254565b5b61392d848285016138bf565b91505092915050565b6000806040838503121561394d5761394c61324f565b5b600061395b858286016134f5565b925050602061396c8582860161332b565b9150509250929050565b600067ffffffffffffffff821115613991576139906136d9565b5b61399a826133b3565b9050602081019050919050565b60006139ba6139b584613976565b613739565b9050828152602081018484840111156139d6576139d5613838565b5b6139e184828561386e565b509392505050565b600082601f8301126139fe576139fd6136d4565b5b8135613a0e8482602086016139a7565b91505092915050565b60008060008060808587031215613a3157613a3061324f565b5b6000613a3f878288016134f5565b9450506020613a50878288016134f5565b9350506040613a6187828801613440565b925050606085013567ffffffffffffffff811115613a8257613a81613254565b5b613a8e878288016139e9565b91505092959194509250565b60008060408385031215613ab157613ab061324f565b5b6000613abf858286016134f5565b9250506020613ad0858286016134f5565b9150509250929050565b7f4f776e61626c653a2063616c6c6572206973206e6f7420746865206f776e6572600082015250565b6000613b10602083613378565b9150613b1b82613ada565b602082019050919050565b60006020820190508181036000830152613b3f81613b03565b9050919050565b7f4e487b7100000000000000000000000000000000000000000000000000000000600052602260045260246000fd5b60006002820490506001821680613b8d57607f821691505b602082108103613ba057613b9f613b46565b5b50919050565b7f4552433732313a20617070726f76656420717565727920666f72206e6f6e657860008201527f697374656e7420746f6b656e0000000000000000000000000000000000000000602082015250565b6000613c02602c83613378565b9150613c0d82613ba6565b604082019050919050565b60006020820190508181036000830152613c3181613bf5565b9050919050565b7f4552433732313a20617070726f76616c20746f2063757272656e74206f776e6560008201527f7200000000000000000000000000000000000000000000000000000000000000602082015250565b6000613c94602183613378565b9150613c9f82613c38565b604082019050919050565b60006020820190508181036000830152613cc381613c87565b9050919050565b7f4552433732313a20617070726f76652063616c6c6572206973206e6f74206f7760008201527f6e6572206e6f7220617070726f76656420666f7220616c6c0000000000000000602082015250565b6000613d26603883613378565b9150613d3182613cca565b604082019050919050565b60006020820190508181036000830152613d5581613d19565b9050919050565b7f4552433732313a207472616e736665722063616c6c6572206973206e6f74206f60008201527f776e6572206e6f7220617070726f766564000000000000000000000000000000602082015250565b6000613db8603183613378565b9150613dc382613d5c565b604082019050919050565b60006020820190508181036000830152613de781613dab565b9050919050565b7f455243373231456e756d657261626c653a206f776e657220696e646578206f7560008201527f74206f6620626f756e6473000000000000000000000000000000000000000000602082015250565b6000613e4a602b83613378565b9150613e5582613dee565b604082019050919050565b60006020820190508181036000830152613e7981613e3d565b9050919050565b600081905092915050565b50565b6000613e9b600083613e80565b9150613ea682613e8b565b600082019050919050565b6000613ebc82613e8e565b9150819050919050565b7f4e487b7100000000000000000000000000000000000000000000000000000000600052601160045260246000fd5b6000613f008261341f565b9150613f0b8361341f565b9250828201905080821115613f2357613f22613ec6565b5b92915050565b6000613f348261341f565b9150613f3f8361341f565b9250828202613f4d8161341f565b91508282048414831517613f6457613f63613ec6565b5b5092915050565b6000613f768261341f565b91507fffffffffffffffffffffffffffffffffffffffffffffffffffffffffffffffff8203613fa857613fa7613ec6565b5b600182019050919050565b7f4e487b7100000000000000000000000000000000000000000000000000000000600052603260045260246000fd5b7f455243373231456e756d657261626c653a20676c6f62616c20696e646578206f60008201527f7574206f6620626f756e64730000000000000000000000000000000000000000602082015250565b600061403e602c83613378565b915061404982613fe2565b604082019050919050565b6000602082019050818103600083015261406d81614031565b9050919050565b60008190508160005260206000209050919050565b60006020601f8301049050919050565b600082821b905092915050565b6000600883026140d67fffffffffffffffffffffffffffffffffffffffffffffffffffffffffffffffff82614099565b6140e08683614099565b95508019841693508086168417925050509392505050565b6000819050919050565b600061411d6141186141138461341f565b6140f8565b61341f565b9050919050565b6000819050919050565b61413783614102565b61414b61414382614124565b8484546140a6565b825550505050565b600090565b614160614153565b61416b81848461412e565b505050565b5b8181101561418f57614184600082614158565b600181019050614171565b5050565b601f8211156141d4576141a581614074565b6141ae84614089565b810160208510156141bd578190505b6141d16141c985614089565b830182614170565b50505b505050565b600082821c905092915050565b60006141f7600019846008026141d9565b1980831691505092915050565b600061421083836141e6565b9150826002028217905092915050565b6142298261336d565b67ffffffffffffffff811115614242576142416136d9565b5b61424c8254613b75565b614257828285614193565b600060209050601f83116001811461428a5760008415614278578287015190505b6142828582614204565b8655506142ea565b601f19841661429886614074565b60005b828110156142c05784890151825560018201915060208501945060208101905061429b565b868310156142dd57848901516142d9601f8916826141e6565b8355505b6001600288020188555050505b505050505050565b7f4552433732313a206f776e657220717565727920666f72206e6f6e657869737460008201527f656e7420746f6b656e0000000000000000000000000000000000000000000000602082015250565b600061434e602983613378565b9150614359826142f2565b604082019050919050565b6000602082019050818103600083015261437d81614341565b9050919050565b7f4552433732313a2062616c616e636520717565727920666f7220746865207a6560008201527f726f206164647265737300000000000000000000000000000000000000000000602082015250565b60006143e0602a83613378565b91506143eb82614384565b604082019050919050565b6000602082019050818103600083015261440f816143d3565b9050919050565b7f4552433732313a20617070726f766520746f2063616c6c657200000000000000600082015250565b600061444c601983613378565b915061445782614416565b602082019050919050565b6000602082019050818103600083015261447b8161443f565b9050919050565b7f4552433732314d657461646174613a2055524920717565727920666f72206e6f60008201527f6e6578697374656e7420746f6b656e0000000000000000000000000000000000602082015250565b60006144de602f83613378565b91506144e982614482565b604082019050919050565b6000602082019050818103600083015261450d816144d1565b9050919050565b600081905092915050565b600061452a8261336d565b6145348185614514565b9350614544818560208601613389565b80840191505092915050565b6000815461455d81613b75565b6145678186614514565b945060018216600081146145825760018114614597576145ca565b60ff19831686528115158202860193506145ca565b6145a085614074565b60005b838110156145c2578154818901526001820191506020810190506145a3565b838801955050505b50505092915050565b60006145df828661451f565b91506145eb828561451f565b91506145f78284614550565b9150819050949350505050565b7f4f776e61626c653a206e6577206f776e657220697320746865207a65726f206160008201527f6464726573730000000000000000000000000000000000000000000000000000602082015250565b6000614660602683613378565b915061466b82614604565b604082019050919050565b6000602082019050818103600083015261468f81614653565b9050919050565b7f4552433732313a206f70657261746f7220717565727920666f72206e6f6e657860008201527f697374656e7420746f6b656e0000000000000000000000000000000000000000602082015250565b60006146f2602c83613378565b91506146fd82614696565b604082019050919050565b60006020820190508181036000830152614721816146e5565b9050919050565b7f4552433732313a207472616e73666572206f6620746f6b656e2074686174206960008201527f73206e6f74206f776e0000000000000000000000000000000000000000000000602082015250565b6000614784602983613378565b915061478f82614728565b604082019050919050565b600060208201905081810360008301526147b381614777565b9050919050565b7f4552433732313a207472616e7366657220746f20746865207a65726f2061646460008201527f7265737300000000000000000000000000000000000000000000000000000000602082015250565b6000614816602483613378565b9150614821826147ba565b604082019050919050565b6000602082019050818103600083015261484581614809565b9050919050565b60006148578261341f565b91506148628361341f565b925082820390508181111561487a57614879613ec6565b5b92915050565b7f4552433732313a207472616e7366657220746f206e6f6e20455243373231526560008201527f63656976657220696d706c656d656e7465720000000000000000000000000000602082015250565b60006148dc603283613378565b91506148e782614880565b604082019050919050565b6000602082019050818103600083015261490b816148cf565b9050919050565b7f4e487b7100000000000000000000000000000000000000000000000000000000600052601260045260246000fd5b600061494c8261341f565b91506149578361341f565b92508261496757614966614912565b5b828204905092915050565b600061497d8261341f565b91506149888361341f565b92508261499857614997614912565b5b828206905092915050565b600081519050919050565b600082825260208201905092915050565b60006149ca826149a3565b6149d481856149ae565b93506149e4818560208601613389565b6149ed816133b3565b840191505092915050565b6000608082019050614a0d60008301876134b4565b614a1a60208301866134b4565b614a27604083018561354a565b8181036060830152614a3981846149bf565b905095945050505050565b600081519050614a5381613285565b92915050565b600060208284031215614a6f57614a6e61324f565b5b6000614a7d84828501614a44565b91505092915050565b7f4e487b7100000000000000000000000000000000000000000000000000000000600052603160045260246000fd5b7f4552433732313a206d696e7420746f20746865207a65726f2061646472657373600082015250565b6000614aeb602083613378565b9150614af682614ab5565b602082019050919050565b60006020820190508181036000830152614b1a81614ade565b9050919050565b7f4552433732313a20746f6b656e20616c7265616479206d696e74656400000000600082015250565b6000614b57601c83613378565b9150614b6282614b21565b602082019050919050565b60006020820190508181036000830152614b8681614b4a565b905091905056fea264697066735822122008acc310e9e6788d0f1d5786b224f2ee653b7107c8f6f1c3e169af5635ded64b64736f6c63430008110033697066733a2f2f516d657871634c44766f5036484354745347756d4733797a685a64483867757656337a336b526543766632514b6e",
  "linkReferences": {},
  "deployedLinkReferences": {}
}