{
  "_format": "hh-sol-artifact-1",
  "contractName": "ThePoorGhostNFT",
  "sourceName": "contracts/ThePoorGhostNFT.sol",
  "abi": [
    {
      "inputs": [
        {
          "internalType": "string",
          "name": "_initBaseURI",
          "type": "string"
        }
      ],
      "stateMutability": "nonpayable",
      "type": "constructor"
    },
    {
      "anonymous": false,
      "inputs": [
        {
          "indexed": true,
          "internalType": "address",
          "name": "owner",
          "type": "address"
        },
        {
          "indexed": true,
          "internalType": "address",
          "name": "approved",
          "type": "address"
        },
        {
          "indexed": true,
          "internalType": "uint256",
          "name": "tokenId",
          "type": "uint256"
        }
      ],
      "name": "Approval",
      "type": "event"
    },
    {
      "anonymous": false,
      "inputs": [
        {
          "indexed": true,
          "internalType": "address",
          "name": "owner",
          "type": "address"
        },
        {
          "indexed": true,
          "internalType": "address",
          "name": "operator",
          "type": "address"
        },
        {
          "indexed": false,
          "internalType": "bool",
          "name": "approved",
          "type": "bool"
        }
      ],
      "name": "ApprovalForAll",
      "type": "event"
    },
    {
      "anonymous": false,
      "inputs": [
        {
          "indexed": true,
          "internalType": "address",
          "name": "previousOwner",
          "type": "address"
        },
        {
          "indexed": true,
          "internalType": "address",
          "name": "newOwner",
          "type": "address"
        }
      ],
      "name": "OwnershipTransferred",
      "type": "event"
    },
    {
      "anonymous": false,
      "inputs": [
        {
          "indexed": true,
          "internalType": "address",
          "name": "from",
          "type": "address"
        },
        {
          "indexed": true,
          "internalType": "address",
          "name": "to",
          "type": "address"
        },
        {
          "indexed": true,
          "internalType": "uint256",
          "name": "tokenId",
          "type": "uint256"
        }
      ],
      "name": "Transfer",
      "type": "event"
    },
    {
      "inputs": [
        {
          "internalType": "address",
          "name": "to",
          "type": "address"
        },
        {
          "internalType": "uint256",
          "name": "tokenId",
          "type": "uint256"
        }
      ],
      "name": "approve",
      "outputs": [],
      "stateMutability": "nonpayable",
      "type": "function"
    },
    {
      "inputs": [
        {
          "internalType": "address",
          "name": "owner",
          "type": "address"
        }
      ],
      "name": "balanceOf",
      "outputs": [
        {
          "internalType": "uint256",
          "name": "",
          "type": "uint256"
        }
      ],
      "stateMutability": "view",
      "type": "function"
    },
    {
      "inputs": [],
      "name": "baseExtension",
      "outputs": [
        {
          "internalType": "string",
          "name": "",
          "type": "string"
        }
      ],
      "stateMutability": "view",
      "type": "function"
    },
    {
      "inputs": [],
      "name": "baseURI",
      "outputs": [
        {
          "internalType": "string",
          "name": "",
          "type": "string"
        }
      ],
      "stateMutability": "view",
      "type": "function"
    },
    {
      "inputs": [],
      "name": "cost",
      "outputs": [
        {
          "internalType": "uint256",
          "name": "",
          "type": "uint256"
        }
      ],
      "stateMutability": "view",
      "type": "function"
    },
    {
      "inputs": [
        {
          "internalType": "uint256",
          "name": "tokenId",
          "type": "uint256"
        }
      ],
      "name": "getApproved",
      "outputs": [
        {
          "internalType": "address",
          "name": "",
          "type": "address"
        }
      ],
      "stateMutability": "view",
      "type": "function"
    },
    {
      "inputs": [
        {
          "internalType": "address",
          "name": "owner",
          "type": "address"
        },
        {
          "internalType": "address",
          "name": "operator",
          "type": "address"
        }
      ],
      "name": "isApprovedForAll",
      "outputs": [
        {
          "internalType": "bool",
          "name": "",
          "type": "bool"
        }
      ],
      "stateMutability": "view",
      "type": "function"
    },
    {
      "inputs": [],
      "name": "maxSupply",
      "outputs": [
        {
          "internalType": "uint256",
          "name": "",
          "type": "uint256"
        }
      ],
      "stateMutability": "view",
      "type": "function"
    },
    {
      "inputs": [
        {
          "internalType": "address",
          "name": "_to",
          "type": "address"
        },
        {
          "internalType": "uint256",
          "name": "_mintAmount",
          "type": "uint256"
        }
      ],
      "name": "mint",
      "outputs": [],
      "stateMutability": "payable",
      "type": "function"
    },
    {
      "inputs": [],
      "name": "name",
      "outputs": [
        {
          "internalType": "string",
          "name": "",
          "type": "string"
        }
      ],
      "stateMutability": "view",
      "type": "function"
    },
    {
      "inputs": [],
      "name": "owner",
      "outputs": [
        {
          "internalType": "address",
          "name": "",
          "type": "address"
        }
      ],
      "stateMutability": "view",
      "type": "function"
    },
    {
      "inputs": [
        {
          "internalType": "uint256",
          "name": "tokenId",
          "type": "uint256"
        }
      ],
      "name": "ownerOf",
      "outputs": [
        {
          "internalType": "address",
          "name": "",
          "type": "address"
        }
      ],
      "stateMutability": "view",
      "type": "function"
    },
    {
      "inputs": [
        {
          "internalType": "bool",
          "name": "_state",
          "type": "bool"
        }
      ],
      "name": "pause",
      "outputs": [],
      "stateMutability": "nonpayable",
      "type": "function"
    },
    {
      "inputs": [],
      "name": "paused",
      "outputs": [
        {
          "internalType": "bool",
          "name": "",
          "type": "bool"
        }
      ],
      "stateMutability": "view",
      "type": "function"
    },
    {
      "inputs": [
        {
          "internalType": "address",
          "name": "_user",
          "type": "address"
        }
      ],
      "name": "removeWhitelistUser",
      "outputs": [],
      "stateMutability": "nonpayable",
      "type": "function"
    },
    {
      "inputs": [],
      "name": "renounceOwnership",
      "outputs": [],
      "stateMutability": "nonpayable",
      "type": "function"
    },
    {
      "inputs": [
        {
          "internalType": "address",
          "name": "from",
          "type": "address"
        },
        {
          "internalType": "address",
          "name": "to",
          "type": "address"
        },
        {
          "internalType": "uint256",
          "name": "tokenId",
          "type": "uint256"
        }
      ],
      "name": "safeTransferFrom",
      "outputs": [],
      "stateMutability": "nonpayable",
      "type": "function"
    },
    {
      "inputs": [
        {
          "internalType": "address",
          "name": "from",
          "type": "address"
        },
        {
          "internalType": "address",
          "name": "to",
          "type": "address"
        },
        {
          "internalType": "uint256",
          "name": "tokenId",
          "type": "uint256"
        },
        {
          "internalType": "bytes",
          "name": "_data",
          "type": "bytes"
        }
      ],
      "name": "safeTransferFrom",
      "outputs": [],
      "stateMutability": "nonpayable",
      "type": "function"
    },
    {
      "inputs": [
        {
          "internalType": "address",
          "name": "operator",
          "type": "address"
        },
        {
          "internalType": "bool",
          "name": "approved",
          "type": "bool"
        }
      ],
      "name": "setApprovalForAll",
      "outputs": [],
      "stateMutability": "nonpayable",
      "type": "function"
    },
    {
      "inputs": [
        {
          "internalType": "string",
          "name": "_newBaseExtension",
          "type": "string"
        }
      ],
      "name": "setBaseExtension",
      "outputs": [],
      "stateMutability": "nonpayable",
      "type": "function"
    },
    {
      "inputs": [
        {
          "internalType": "string",
          "name": "_newBaseURI",
          "type": "string"
        }
      ],
      "name": "setBaseURI",
      "outputs": [],
      "stateMutability": "nonpayable",
      "type": "function"
    },
    {
      "inputs": [
        {
          "internalType": "bool",
          "name": "_status",
          "type": "bool"
        }
      ],
      "name": "setBlindBoxOpened",
      "outputs": [],
      "stateMutability": "nonpayable",
      "type": "function"
    },
    {
      "inputs": [
        {
          "internalType": "uint256",
          "name": "_newCost",
          "type": "uint256"
        }
      ],
      "name": "setCost",
      "outputs": [],
      "stateMutability": "nonpayable",
      "type": "function"
    },
    {
      "inputs": [
        {
          "internalType": "bytes4",
          "name": "interfaceId",
          "type": "bytes4"
        }
      ],
      "name": "supportsInterface",
      "outputs": [
        {
          "internalType": "bool",
          "name": "",
          "type": "bool"
        }
      ],
      "stateMutability": "view",
      "type": "function"
    },
    {
      "inputs": [],
      "name": "symbol",
      "outputs": [
        {
          "internalType": "string",
          "name": "",
          "type": "string"
        }
      ],
      "stateMutability": "view",
      "type": "function"
    },
    {
      "inputs": [
        {
          "internalType": "uint256",
          "name": "index",
          "type": "uint256"
        }
      ],
      "name": "tokenByIndex",
      "outputs": [
        {
          "internalType": "uint256",
          "name": "",
          "type": "uint256"
        }
      ],
      "stateMutability": "view",
      "type": "function"
    },
    {
      "inputs": [
        {
          "internalType": "address",
          "name": "owner",
          "type": "address"
        },
        {
          "internalType": "uint256",
          "name": "index",
          "type": "uint256"
        }
      ],
      "name": "tokenOfOwnerByIndex",
      "outputs": [
        {
          "internalType": "uint256",
          "name": "",
          "type": "uint256"
        }
      ],
      "stateMutability": "view",
      "type": "function"
    },
    {
      "inputs": [
        {
          "internalType": "uint256",
          "name": "tokenId",
          "type": "uint256"
        }
      ],
      "name": "tokenURI",
      "outputs": [
        {
          "internalType": "string",
          "name": "",
          "type": "string"
        }
      ],
      "stateMutability": "view",
      "type": "function"
    },
    {
      "inputs": [],
      "name": "totalSupply",
      "outputs": [
        {
          "internalType": "uint256",
          "name": "",
          "type": "uint256"
        }
      ],
      "stateMutability": "view",
      "type": "function"
    },
    {
      "inputs": [
        {
          "internalType": "address",
          "name": "from",
          "type": "address"
        },
        {
          "internalType": "address",
          "name": "to",
          "type": "address"
        },
        {
          "internalType": "uint256",
          "name": "tokenId",
          "type": "uint256"
        }
      ],
      "name": "transferFrom",
      "outputs": [],
      "stateMutability": "nonpayable",
      "type": "function"
    },
    {
      "inputs": [
        {
          "internalType": "address",
          "name": "newOwner",
          "type": "address"
        }
      ],
      "name": "transferOwnership",
      "outputs": [],
      "stateMutability": "nonpayable",
      "type": "function"
    },
    {
      "inputs": [
        {
          "internalType": "address",
          "name": "_owner",
          "type": "address"
        }
      ],
      "name": "walletOfOwner",
      "outputs": [
        {
          "internalType": "uint256[]",
          "name": "",
          "type": "uint256[]"
        }
      ],
      "stateMutability": "view",
      "type": "function"
    },
    {
      "inputs": [
        {
          "internalType": "address",
          "name": "_user",
          "type": "address"
        }
      ],
      "name": "whitelistUser",
      "outputs": [],
      "stateMutability": "nonpayable",
      "type": "function"
    },
    {
      "inputs": [
        {
          "internalType": "address",
          "name": "",
          "type": "address"
        }
      ],
      "name": "whitelisted",
      "outputs": [
        {
          "internalType": "bool",
          "name": "",
          "type": "bool"
        }
      ],
      "stateMutability": "view",
      "type": "function"
    },
    {
      "inputs": [],
      "name": "withdraw",
      "outputs": [],
      "stateMutability": "payable",
      "type": "function"
    }
  ],
  "bytecode": "0x60806040526000600a60146101000a81548160ff02191690831515021790555060405180606001604052806035815260200162004f1960359139600b9081620000499190620005d0565b506040518060400160405280600581526020017f2e6a736f6e000000000000000000000000000000000000000000000000000000815250600d9081620000909190620005d0565b5066470de4df820000600e55612710600f556000601060006101000a81548160ff021916908315150217905550348015620000ca57600080fd5b5060405162004f4e38038062004f4e8339818101604052810190620000f091906200081b565b6040518060400160405280600a81526020017f506f6f722047686f7374000000000000000000000000000000000000000000008152506040518060400160405280600281526020017f504700000000000000000000000000000000000000000000000000000000000081525081600090816200016d9190620005d0565b5080600190816200017f9190620005d0565b505050620001a262000196620001ba60201b60201c565b620001c260201b60201c565b620001b3816200028860201b60201c565b50620008ef565b600033905090565b6000600a60009054906101000a900473ffffffffffffffffffffffffffffffffffffffff16905081600a60006101000a81548173ffffffffffffffffffffffffffffffffffffffff021916908373ffffffffffffffffffffffffffffffffffffffff1602179055508173ffffffffffffffffffffffffffffffffffffffff168173ffffffffffffffffffffffffffffffffffffffff167f8be0079c531659141344cd1fd0a4f28419497f9722a3daafe3b4186f6b6457e060405160405180910390a35050565b62000298620001ba60201b60201c565b73ffffffffffffffffffffffffffffffffffffffff16620002be6200032c60201b60201c565b73ffffffffffffffffffffffffffffffffffffffff161462000317576040517f08c379a00000000000000000000000000000000000000000000000000000000081526004016200030e90620008cd565b60405180910390fd5b80600c9081620003289190620005d0565b5050565b6000600a60009054906101000a900473ffffffffffffffffffffffffffffffffffffffff16905090565b600081519050919050565b7f4e487b7100000000000000000000000000000000000000000000000000000000600052604160045260246000fd5b7f4e487b7100000000000000000000000000000000000000000000000000000000600052602260045260246000fd5b60006002820490506001821680620003d857607f821691505b602082108103620003ee57620003ed62000390565b5b50919050565b60008190508160005260206000209050919050565b60006020601f8301049050919050565b600082821b905092915050565b600060088302620004587fffffffffffffffffffffffffffffffffffffffffffffffffffffffffffffffff8262000419565b62000464868362000419565b95508019841693508086168417925050509392505050565b6000819050919050565b6000819050919050565b6000620004b1620004ab620004a5846200047c565b62000486565b6200047c565b9050919050565b6000819050919050565b620004cd8362000490565b620004e5620004dc82620004b8565b84845462000426565b825550505050565b600090565b620004fc620004ed565b62000509818484620004c2565b505050565b5b81811015620005315762000525600082620004f2565b6001810190506200050f565b5050565b601f82111562000580576200054a81620003f4565b620005558462000409565b8101602085101562000565578190505b6200057d620005748562000409565b8301826200050e565b50505b505050565b600082821c905092915050565b6000620005a56000198460080262000585565b1980831691505092915050565b6000620005c0838362000592565b9150826002028217905092915050565b620005db8262000356565b67ffffffffffffffff811115620005f757620005f662000361565b5b620006038254620003bf565b6200061082828562000535565b600060209050601f83116001811462000648576000841562000633578287015190505b6200063f8582620005b2565b865550620006af565b601f1984166200065886620003f4565b60005b8281101562000682578489015182556001820191506020850194506020810190506200065b565b86831015620006a257848901516200069e601f89168262000592565b8355505b6001600288020188555050505b505050505050565b6000604051905090565b600080fd5b600080fd5b600080fd5b600080fd5b6000601f19601f8301169050919050565b620006f182620006d5565b810181811067ffffffffffffffff8211171562000713576200071262000361565b5b80604052505050565b600062000728620006b7565b9050620007368282620006e6565b919050565b600067ffffffffffffffff82111562000759576200075862000361565b5b6200076482620006d5565b9050602081019050919050565b60005b838110156200079157808201518184015260208101905062000774565b60008484015250505050565b6000620007b4620007ae846200073b565b6200071c565b905082815260208101848484011115620007d357620007d2620006d0565b5b620007e084828562000771565b509392505050565b600082601f8301126200080057620007ff620006cb565b5b8151620008128482602086016200079d565b91505092915050565b600060208284031215620008345762000833620006c1565b5b600082015167ffffffffffffffff811115620008555762000854620006c6565b5b6200086384828501620007e8565b91505092915050565b600082825260208201905092915050565b7f4f776e61626c653a2063616c6c6572206973206e6f7420746865206f776e6572600082015250565b6000620008b56020836200086c565b9150620008c2826200087d565b602082019050919050565b60006020820190508181036000830152620008e881620008a6565b9050919050565b61461a80620008ff6000396000f3fe6080604052600436106102045760003560e01c806355f804b311610118578063b88d4fde116100a0578063d936547e1161006f578063d936547e1461074b578063da3ef23f14610788578063e6a9e577146107b1578063e985e9c5146107da578063f2fde38b1461081757610204565b8063b88d4fde1461068f578063c6682862146106b8578063c87b56dd146106e3578063d5abeb011461072057610204565b806370a08231116100e757806370a08231146105bc578063715018a6146105f95780638da5cb5b1461061057806395d89b411461063b578063a22cb4651461066657610204565b806355f804b3146105005780635c975abb146105295780636352211e146105545780636c0360eb1461059157610204565b80632f745c591161019b57806342842e0e1161016a57806342842e0e1461040b578063438b63001461043457806344a0d68a146104715780634a4c560d1461049a5780634f6ccce7146104c357610204565b80632f745c591461037f57806330cc7ae0146103bc5780633ccfd60b146103e557806340c10f19146103ef57610204565b8063095ea7b3116101d7578063095ea7b3146102d757806313faede61461030057806318160ddd1461032b57806323b872dd1461035657610204565b806301ffc9a71461020957806302329a291461024657806306fdde031461026f578063081812fc1461029a575b600080fd5b34801561021557600080fd5b50610230600480360381019061022b9190612dec565b610840565b60405161023d9190612e34565b60405180910390f35b34801561025257600080fd5b5061026d60048036038101906102689190612e7b565b6108ba565b005b34801561027b57600080fd5b50610284610953565b6040516102919190612f38565b60405180910390f35b3480156102a657600080fd5b506102c160048036038101906102bc9190612f90565b6109e5565b6040516102ce9190612ffe565b60405180910390f35b3480156102e357600080fd5b506102fe60048036038101906102f99190613045565b610a6a565b005b34801561030c57600080fd5b50610315610b81565b6040516103229190613094565b60405180910390f35b34801561033757600080fd5b50610340610b87565b60405161034d9190613094565b60405180910390f35b34801561036257600080fd5b5061037d600480360381019061037891906130af565b610b94565b005b34801561038b57600080fd5b506103a660048036038101906103a19190613045565b610bf4565b6040516103b39190613094565b60405180910390f35b3480156103c857600080fd5b506103e360048036038101906103de9190613102565b610c99565b005b6103ed610d70565b005b61040960048036038101906104049190613045565b610e65565b005b34801561041757600080fd5b50610432600480360381019061042d91906130af565b610f9c565b005b34801561044057600080fd5b5061045b60048036038101906104569190613102565b610fbc565b60405161046891906131ed565b60405180910390f35b34801561047d57600080fd5b5061049860048036038101906104939190612f90565b61106a565b005b3480156104a657600080fd5b506104c160048036038101906104bc9190613102565b6110f0565b005b3480156104cf57600080fd5b506104ea60048036038101906104e59190612f90565b6111c7565b6040516104f79190613094565b60405180910390f35b34801561050c57600080fd5b5061052760048036038101906105229190613344565b611238565b005b34801561053557600080fd5b5061053e6112c7565b60405161054b9190612e34565b60405180910390f35b34801561056057600080fd5b5061057b60048036038101906105769190612f90565b6112da565b6040516105889190612ffe565b60405180910390f35b34801561059d57600080fd5b506105a661138b565b6040516105b39190612f38565b60405180910390f35b3480156105c857600080fd5b506105e360048036038101906105de9190613102565b611419565b6040516105f09190613094565b60405180910390f35b34801561060557600080fd5b5061060e6114d0565b005b34801561061c57600080fd5b50610625611558565b6040516106329190612ffe565b60405180910390f35b34801561064757600080fd5b50610650611582565b60405161065d9190612f38565b60405180910390f35b34801561067257600080fd5b5061068d6004803603810190610688919061338d565b611614565b005b34801561069b57600080fd5b506106b660048036038101906106b1919061346e565b611794565b005b3480156106c457600080fd5b506106cd6117f6565b6040516106da9190612f38565b60405180910390f35b3480156106ef57600080fd5b5061070a60048036038101906107059190612f90565b611884565b6040516107179190612f38565b60405180910390f35b34801561072c57600080fd5b506107356119e4565b6040516107429190613094565b60405180910390f35b34801561075757600080fd5b50610772600480360381019061076d9190613102565b6119ea565b60405161077f9190612e34565b60405180910390f35b34801561079457600080fd5b506107af60048036038101906107aa9190613344565b611a0a565b005b3480156107bd57600080fd5b506107d860048036038101906107d39190612e7b565b611a99565b005b3480156107e657600080fd5b5061080160048036038101906107fc91906134f1565b611b32565b60405161080e9190612e34565b60405180910390f35b34801561082357600080fd5b5061083e60048036038101906108399190613102565b611bc6565b005b60007f780e9d63000000000000000000000000000000000000000000000000000000007bffffffffffffffffffffffffffffffffffffffffffffffffffffffff1916827bffffffffffffffffffffffffffffffffffffffffffffffffffffffff191614806108b357506108b282611cbd565b5b9050919050565b6108c2611d9f565b73ffffffffffffffffffffffffffffffffffffffff166108e0611558565b73ffffffffffffffffffffffffffffffffffffffff1614610936576040517f08c379a000000000000000000000000000000000000000000000000000000000815260040161092d9061357d565b60405180910390fd5b80601060006101000a81548160ff02191690831515021790555050565b606060008054610962906135cc565b80601f016020809104026020016040519081016040528092919081815260200182805461098e906135cc565b80156109db5780601f106109b0576101008083540402835291602001916109db565b820191906000526020600020905b8154815290600101906020018083116109be57829003601f168201915b5050505050905090565b60006109f082611da7565b610a2f576040517f08c379a0000000000000000000000000000000000000000000000000000000008152600401610a269061366f565b60405180910390fd5b6004600083815260200190815260200160002060009054906101000a900473ffffffffffffffffffffffffffffffffffffffff169050919050565b6000610a75826112da565b90508073ffffffffffffffffffffffffffffffffffffffff168373ffffffffffffffffffffffffffffffffffffffff1603610ae5576040517f08c379a0000000000000000000000000000000000000000000000000000000008152600401610adc90613701565b60405180910390fd5b8073ffffffffffffffffffffffffffffffffffffffff16610b04611d9f565b73ffffffffffffffffffffffffffffffffffffffff161480610b335750610b3281610b2d611d9f565b611b32565b5b610b72576040517f08c379a0000000000000000000000000000000000000000000000000000000008152600401610b6990613793565b60405180910390fd5b610b7c8383611e13565b505050565b600e5481565b6000600880549050905090565b610ba5610b9f611d9f565b82611ecc565b610be4576040517f08c379a0000000000000000000000000000000000000000000000000000000008152600401610bdb90613825565b60405180910390fd5b610bef838383611faa565b505050565b6000610bff83611419565b8210610c40576040517f08c379a0000000000000000000000000000000000000000000000000000000008152600401610c37906138b7565b60405180910390fd5b600660008473ffffffffffffffffffffffffffffffffffffffff1673ffffffffffffffffffffffffffffffffffffffff168152602001908152602001600020600083815260200190815260200160002054905092915050565b610ca1611d9f565b73ffffffffffffffffffffffffffffffffffffffff16610cbf611558565b73ffffffffffffffffffffffffffffffffffffffff1614610d15576040517f08c379a0000000000000000000000000000000000000000000000000000000008152600401610d0c9061357d565b60405180910390fd5b6000601160008373ffffffffffffffffffffffffffffffffffffffff1673ffffffffffffffffffffffffffffffffffffffff16815260200190815260200160002060006101000a81548160ff02191690831515021790555050565b610d78611d9f565b73ffffffffffffffffffffffffffffffffffffffff16610d96611558565b73ffffffffffffffffffffffffffffffffffffffff1614610dec576040517f08c379a0000000000000000000000000000000000000000000000000000000008152600401610de39061357d565b60405180910390fd5b60003373ffffffffffffffffffffffffffffffffffffffff1647604051610e1290613908565b60006040518083038185875af1925050503d8060008114610e4f576040519150601f19603f3d011682016040523d82523d6000602084013e610e54565b606091505b5050905080610e6257600080fd5b50565b6000610e6f610b87565b9050601060009054906101000a900460ff1615610e8b57600080fd5b60008211610e9857600080fd5b600f548282610ea7919061394c565b1115610eb257600080fd5b610eba611558565b73ffffffffffffffffffffffffffffffffffffffff163373ffffffffffffffffffffffffffffffffffffffff1614610f605760011515601160003373ffffffffffffffffffffffffffffffffffffffff1673ffffffffffffffffffffffffffffffffffffffff16815260200190815260200160002060009054906101000a900460ff16151514610f5f5781600e54610f529190613980565b341015610f5e57600080fd5b5b5b6000600190505b828111610f9657610f83848284610f7e919061394c565b612205565b8080610f8e906139c2565b915050610f67565b50505050565b610fb783838360405180602001604052806000815250611794565b505050565b60606000610fc983611419565b905060008167ffffffffffffffff811115610fe757610fe6613219565b5b6040519080825280602002602001820160405280156110155781602001602082028036833780820191505090505b50905060005b8281101561105f5761102d8582610bf4565b8282815181106110405761103f613a0a565b5b6020026020010181815250508080611057906139c2565b91505061101b565b508092505050919050565b611072611d9f565b73ffffffffffffffffffffffffffffffffffffffff16611090611558565b73ffffffffffffffffffffffffffffffffffffffff16146110e6576040517f08c379a00000000000000000000000000000000000000000000000000000000081526004016110dd9061357d565b60405180910390fd5b80600e8190555050565b6110f8611d9f565b73ffffffffffffffffffffffffffffffffffffffff16611116611558565b73ffffffffffffffffffffffffffffffffffffffff161461116c576040517f08c379a00000000000000000000000000000000000000000000000000000000081526004016111639061357d565b60405180910390fd5b6001601160008373ffffffffffffffffffffffffffffffffffffffff1673ffffffffffffffffffffffffffffffffffffffff16815260200190815260200160002060006101000a81548160ff02191690831515021790555050565b60006111d1610b87565b8210611212576040517f08c379a000000000000000000000000000000000000000000000000000000000815260040161120990613aab565b60405180910390fd5b6008828154811061122657611225613a0a565b5b90600052602060002001549050919050565b611240611d9f565b73ffffffffffffffffffffffffffffffffffffffff1661125e611558565b73ffffffffffffffffffffffffffffffffffffffff16146112b4576040517f08c379a00000000000000000000000000000000000000000000000000000000081526004016112ab9061357d565b60405180910390fd5b80600c90816112c39190613c77565b5050565b601060009054906101000a900460ff1681565b6000806002600084815260200190815260200160002060009054906101000a900473ffffffffffffffffffffffffffffffffffffffff169050600073ffffffffffffffffffffffffffffffffffffffff168173ffffffffffffffffffffffffffffffffffffffff1603611382576040517f08c379a000000000000000000000000000000000000000000000000000000000815260040161137990613dbb565b60405180910390fd5b80915050919050565b600c8054611398906135cc565b80601f01602080910402602001604051908101604052809291908181526020018280546113c4906135cc565b80156114115780601f106113e657610100808354040283529160200191611411565b820191906000526020600020905b8154815290600101906020018083116113f457829003601f168201915b505050505081565b60008073ffffffffffffffffffffffffffffffffffffffff168273ffffffffffffffffffffffffffffffffffffffff1603611489576040517f08c379a000000000000000000000000000000000000000000000000000000000815260040161148090613e4d565b60405180910390fd5b600360008373ffffffffffffffffffffffffffffffffffffffff1673ffffffffffffffffffffffffffffffffffffffff168152602001908152602001600020549050919050565b6114d8611d9f565b73ffffffffffffffffffffffffffffffffffffffff166114f6611558565b73ffffffffffffffffffffffffffffffffffffffff161461154c576040517f08c379a00000000000000000000000000000000000000000000000000000000081526004016115439061357d565b60405180910390fd5b6115566000612223565b565b6000600a60009054906101000a900473ffffffffffffffffffffffffffffffffffffffff16905090565b606060018054611591906135cc565b80601f01602080910402602001604051908101604052809291908181526020018280546115bd906135cc565b801561160a5780601f106115df5761010080835404028352916020019161160a565b820191906000526020600020905b8154815290600101906020018083116115ed57829003601f168201915b5050505050905090565b61161c611d9f565b73ffffffffffffffffffffffffffffffffffffffff168273ffffffffffffffffffffffffffffffffffffffff1603611689576040517f08c379a000000000000000000000000000000000000000000000000000000000815260040161168090613eb9565b60405180910390fd5b8060056000611696611d9f565b73ffffffffffffffffffffffffffffffffffffffff1673ffffffffffffffffffffffffffffffffffffffff16815260200190815260200160002060008473ffffffffffffffffffffffffffffffffffffffff1673ffffffffffffffffffffffffffffffffffffffff16815260200190815260200160002060006101000a81548160ff0219169083151502179055508173ffffffffffffffffffffffffffffffffffffffff16611743611d9f565b73ffffffffffffffffffffffffffffffffffffffff167f17307eab39ab6107e8899845ad3d59bd9653f200f220920489ca2b5937696c31836040516117889190612e34565b60405180910390a35050565b6117a561179f611d9f565b83611ecc565b6117e4576040517f08c379a00000000000000000000000000000000000000000000000000000000081526004016117db90613825565b60405180910390fd5b6117f0848484846122e9565b50505050565b600d8054611803906135cc565b80601f016020809104026020016040519081016040528092919081815260200182805461182f906135cc565b801561187c5780601f106118515761010080835404028352916020019161187c565b820191906000526020600020905b81548152906001019060200180831161185f57829003601f168201915b505050505081565b606061188f82611da7565b6118ce576040517f08c379a00000000000000000000000000000000000000000000000000000000081526004016118c590613f4b565b60405180910390fd5b60006118d8612345565b9050600a60149054906101000a900460ff1615611950576000600c80546118fe906135cc565b90501161191a5760405180602001604052806000815250611948565b80611924846123d7565b600d6040516020016119389392919061402a565b6040516020818303038152906040525b9150506119df565b600b805461195d906135cc565b80601f0160208091040260200160405190810160405280929190818152602001828054611989906135cc565b80156119d65780601f106119ab576101008083540402835291602001916119d6565b820191906000526020600020905b8154815290600101906020018083116119b957829003601f168201915b50505050509150505b919050565b600f5481565b60116020528060005260406000206000915054906101000a900460ff1681565b611a12611d9f565b73ffffffffffffffffffffffffffffffffffffffff16611a30611558565b73ffffffffffffffffffffffffffffffffffffffff1614611a86576040517f08c379a0000000000000000000000000000000000000000000000000000000008152600401611a7d9061357d565b60405180910390fd5b80600d9081611a959190613c77565b5050565b611aa1611d9f565b73ffffffffffffffffffffffffffffffffffffffff16611abf611558565b73ffffffffffffffffffffffffffffffffffffffff1614611b15576040517f08c379a0000000000000000000000000000000000000000000000000000000008152600401611b0c9061357d565b60405180910390fd5b80600a60146101000a81548160ff02191690831515021790555050565b6000600560008473ffffffffffffffffffffffffffffffffffffffff1673ffffffffffffffffffffffffffffffffffffffff16815260200190815260200160002060008373ffffffffffffffffffffffffffffffffffffffff1673ffffffffffffffffffffffffffffffffffffffff16815260200190815260200160002060009054906101000a900460ff16905092915050565b611bce611d9f565b73ffffffffffffffffffffffffffffffffffffffff16611bec611558565b73ffffffffffffffffffffffffffffffffffffffff1614611c42576040517f08c379a0000000000000000000000000000000000000000000000000000000008152600401611c399061357d565b60405180910390fd5b600073ffffffffffffffffffffffffffffffffffffffff168173ffffffffffffffffffffffffffffffffffffffff1603611cb1576040517f08c379a0000000000000000000000000000000000000000000000000000000008152600401611ca8906140cd565b60405180910390fd5b611cba81612223565b50565b60007f80ac58cd000000000000000000000000000000000000000000000000000000007bffffffffffffffffffffffffffffffffffffffffffffffffffffffff1916827bffffffffffffffffffffffffffffffffffffffffffffffffffffffff19161480611d8857507f5b5e139f000000000000000000000000000000000000000000000000000000007bffffffffffffffffffffffffffffffffffffffffffffffffffffffff1916827bffffffffffffffffffffffffffffffffffffffffffffffffffffffff1916145b80611d985750611d9782612537565b5b9050919050565b600033905090565b60008073ffffffffffffffffffffffffffffffffffffffff166002600084815260200190815260200160002060009054906101000a900473ffffffffffffffffffffffffffffffffffffffff1673ffffffffffffffffffffffffffffffffffffffff1614159050919050565b816004600083815260200190815260200160002060006101000a81548173ffffffffffffffffffffffffffffffffffffffff021916908373ffffffffffffffffffffffffffffffffffffffff160217905550808273ffffffffffffffffffffffffffffffffffffffff16611e86836112da565b73ffffffffffffffffffffffffffffffffffffffff167f8c5be1e5ebec7d5bd14f71427d1e84f3dd0314c0f7b2291e5b200ac8c7c3b92560405160405180910390a45050565b6000611ed782611da7565b611f16576040517f08c379a0000000000000000000000000000000000000000000000000000000008152600401611f0d9061415f565b60405180910390fd5b6000611f21836112da565b90508073ffffffffffffffffffffffffffffffffffffffff168473ffffffffffffffffffffffffffffffffffffffff161480611f9057508373ffffffffffffffffffffffffffffffffffffffff16611f78846109e5565b73ffffffffffffffffffffffffffffffffffffffff16145b80611fa15750611fa08185611b32565b5b91505092915050565b8273ffffffffffffffffffffffffffffffffffffffff16611fca826112da565b73ffffffffffffffffffffffffffffffffffffffff1614612020576040517f08c379a0000000000000000000000000000000000000000000000000000000008152600401612017906141f1565b60405180910390fd5b600073ffffffffffffffffffffffffffffffffffffffff168273ffffffffffffffffffffffffffffffffffffffff160361208f576040517f08c379a000000000000000000000000000000000000000000000000000000000815260040161208690614283565b60405180910390fd5b61209a8383836125a1565b6120a5600082611e13565b6001600360008573ffffffffffffffffffffffffffffffffffffffff1673ffffffffffffffffffffffffffffffffffffffff16815260200190815260200160002060008282546120f591906142a3565b925050819055506001600360008473ffffffffffffffffffffffffffffffffffffffff1673ffffffffffffffffffffffffffffffffffffffff168152602001908152602001600020600082825461214c919061394c565b92505081905550816002600083815260200190815260200160002060006101000a81548173ffffffffffffffffffffffffffffffffffffffff021916908373ffffffffffffffffffffffffffffffffffffffff160217905550808273ffffffffffffffffffffffffffffffffffffffff168473ffffffffffffffffffffffffffffffffffffffff167fddf252ad1be2c89b69c2b068fc378daa952ba7f163c4a11628f55a4df523b3ef60405160405180910390a4505050565b61221f8282604051806020016040528060008152506126b3565b5050565b6000600a60009054906101000a900473ffffffffffffffffffffffffffffffffffffffff16905081600a60006101000a81548173ffffffffffffffffffffffffffffffffffffffff021916908373ffffffffffffffffffffffffffffffffffffffff1602179055508173ffffffffffffffffffffffffffffffffffffffff168173ffffffffffffffffffffffffffffffffffffffff167f8be0079c531659141344cd1fd0a4f28419497f9722a3daafe3b4186f6b6457e060405160405180910390a35050565b6122f4848484611faa565b6123008484848461270e565b61233f576040517f08c379a000000000000000000000000000000000000000000000000000000000815260040161233690614349565b60405180910390fd5b50505050565b6060600c8054612354906135cc565b80601f0160208091040260200160405190810160405280929190818152602001828054612380906135cc565b80156123cd5780601f106123a2576101008083540402835291602001916123cd565b820191906000526020600020905b8154815290600101906020018083116123b057829003601f168201915b5050505050905090565b60606000820361241e576040518060400160405280600181526020017f30000000000000000000000000000000000000000000000000000000000000008152509050612532565b600082905060005b60008214612450578080612439906139c2565b915050600a826124499190614398565b9150612426565b60008167ffffffffffffffff81111561246c5761246b613219565b5b6040519080825280601f01601f19166020018201604052801561249e5781602001600182028036833780820191505090505b5090505b6000851461252b576001826124b791906142a3565b9150600a856124c691906143c9565b60306124d2919061394c565b60f81b8183815181106124e8576124e7613a0a565b5b60200101907effffffffffffffffffffffffffffffffffffffffffffffffffffffffffffff1916908160001a905350600a856125249190614398565b94506124a2565b8093505050505b919050565b60007f01ffc9a7000000000000000000000000000000000000000000000000000000007bffffffffffffffffffffffffffffffffffffffffffffffffffffffff1916827bffffffffffffffffffffffffffffffffffffffffffffffffffffffff1916149050919050565b6125ac838383612895565b600073ffffffffffffffffffffffffffffffffffffffff168373ffffffffffffffffffffffffffffffffffffffff16036125ee576125e98161289a565b61262d565b8173ffffffffffffffffffffffffffffffffffffffff168373ffffffffffffffffffffffffffffffffffffffff161461262c5761262b83826128e3565b5b5b600073ffffffffffffffffffffffffffffffffffffffff168273ffffffffffffffffffffffffffffffffffffffff160361266f5761266a81612a50565b6126ae565b8273ffffffffffffffffffffffffffffffffffffffff168273ffffffffffffffffffffffffffffffffffffffff16146126ad576126ac8282612b21565b5b5b505050565b6126bd8383612ba0565b6126ca600084848461270e565b612709576040517f08c379a000000000000000000000000000000000000000000000000000000000815260040161270090614349565b60405180910390fd5b505050565b600061272f8473ffffffffffffffffffffffffffffffffffffffff16612d6d565b15612888578373ffffffffffffffffffffffffffffffffffffffff1663150b7a02612758611d9f565b8786866040518563ffffffff1660e01b815260040161277a949392919061444f565b6020604051808303816000875af19250505080156127b657506040513d601f19601f820116820180604052508101906127b391906144b0565b60015b612838573d80600081146127e6576040519150601f19603f3d011682016040523d82523d6000602084013e6127eb565b606091505b506000815103612830576040517f08c379a000000000000000000000000000000000000000000000000000000000815260040161282790614349565b60405180910390fd5b805181602001fd5b63150b7a0260e01b7bffffffffffffffffffffffffffffffffffffffffffffffffffffffff1916817bffffffffffffffffffffffffffffffffffffffffffffffffffffffff19161491505061288d565b600190505b949350505050565b505050565b6008805490506009600083815260200190815260200160002081905550600881908060018154018082558091505060019003906000526020600020016000909190919091505550565b600060016128f084611419565b6128fa91906142a3565b90506000600760008481526020019081526020016000205490508181146129df576000600660008673ffffffffffffffffffffffffffffffffffffffff1673ffffffffffffffffffffffffffffffffffffffff168152602001908152602001600020600084815260200190815260200160002054905080600660008773ffffffffffffffffffffffffffffffffffffffff1673ffffffffffffffffffffffffffffffffffffffff168152602001908152602001600020600084815260200190815260200160002081905550816007600083815260200190815260200160002081905550505b6007600084815260200190815260200160002060009055600660008573ffffffffffffffffffffffffffffffffffffffff1673ffffffffffffffffffffffffffffffffffffffff16815260200190815260200160002060008381526020019081526020016000206000905550505050565b60006001600880549050612a6491906142a3565b9050600060096000848152602001908152602001600020549050600060088381548110612a9457612a93613a0a565b5b906000526020600020015490508060088381548110612ab657612ab5613a0a565b5b906000526020600020018190555081600960008381526020019081526020016000208190555060096000858152602001908152602001600020600090556008805480612b0557612b046144dd565b5b6001900381819060005260206000200160009055905550505050565b6000612b2c83611419565b905081600660008573ffffffffffffffffffffffffffffffffffffffff1673ffffffffffffffffffffffffffffffffffffffff168152602001908152602001600020600083815260200190815260200160002081905550806007600084815260200190815260200160002081905550505050565b600073ffffffffffffffffffffffffffffffffffffffff168273ffffffffffffffffffffffffffffffffffffffff1603612c0f576040517f08c379a0000000000000000000000000000000000000000000000000000000008152600401612c0690614558565b60405180910390fd5b612c1881611da7565b15612c58576040517f08c379a0000000000000000000000000000000000000000000000000000000008152600401612c4f906145c4565b60405180910390fd5b612c64600083836125a1565b6001600360008473ffffffffffffffffffffffffffffffffffffffff1673ffffffffffffffffffffffffffffffffffffffff1681526020019081526020016000206000828254612cb4919061394c565b92505081905550816002600083815260200190815260200160002060006101000a81548173ffffffffffffffffffffffffffffffffffffffff021916908373ffffffffffffffffffffffffffffffffffffffff160217905550808273ffffffffffffffffffffffffffffffffffffffff16600073ffffffffffffffffffffffffffffffffffffffff167fddf252ad1be2c89b69c2b068fc378daa952ba7f163c4a11628f55a4df523b3ef60405160405180910390a45050565b600080823b905060008111915050919050565b6000604051905090565b600080fd5b600080fd5b60007fffffffff0000000000000000000000000000000000000000000000000000000082169050919050565b612dc981612d94565b8114612dd457600080fd5b50565b600081359050612de681612dc0565b92915050565b600060208284031215612e0257612e01612d8a565b5b6000612e1084828501612dd7565b91505092915050565b60008115159050919050565b612e2e81612e19565b82525050565b6000602082019050612e496000830184612e25565b92915050565b612e5881612e19565b8114612e6357600080fd5b50565b600081359050612e7581612e4f565b92915050565b600060208284031215612e9157612e90612d8a565b5b6000612e9f84828501612e66565b91505092915050565b600081519050919050565b600082825260208201905092915050565b60005b83811015612ee2578082015181840152602081019050612ec7565b60008484015250505050565b6000601f19601f8301169050919050565b6000612f0a82612ea8565b612f148185612eb3565b9350612f24818560208601612ec4565b612f2d81612eee565b840191505092915050565b60006020820190508181036000830152612f528184612eff565b905092915050565b6000819050919050565b612f6d81612f5a565b8114612f7857600080fd5b50565b600081359050612f8a81612f64565b92915050565b600060208284031215612fa657612fa5612d8a565b5b6000612fb484828501612f7b565b91505092915050565b600073ffffffffffffffffffffffffffffffffffffffff82169050919050565b6000612fe882612fbd565b9050919050565b612ff881612fdd565b82525050565b60006020820190506130136000830184612fef565b92915050565b61302281612fdd565b811461302d57600080fd5b50565b60008135905061303f81613019565b92915050565b6000806040838503121561305c5761305b612d8a565b5b600061306a85828601613030565b925050602061307b85828601612f7b565b9150509250929050565b61308e81612f5a565b82525050565b60006020820190506130a96000830184613085565b92915050565b6000806000606084860312156130c8576130c7612d8a565b5b60006130d686828701613030565b93505060206130e786828701613030565b92505060406130f886828701612f7b565b9150509250925092565b60006020828403121561311857613117612d8a565b5b600061312684828501613030565b91505092915050565b600081519050919050565b600082825260208201905092915050565b6000819050602082019050919050565b61316481612f5a565b82525050565b6000613176838361315b565b60208301905092915050565b6000602082019050919050565b600061319a8261312f565b6131a4818561313a565b93506131af8361314b565b8060005b838110156131e05781516131c7888261316a565b97506131d283613182565b9250506001810190506131b3565b5085935050505092915050565b60006020820190508181036000830152613207818461318f565b905092915050565b600080fd5b600080fd5b7f4e487b7100000000000000000000000000000000000000000000000000000000600052604160045260246000fd5b61325182612eee565b810181811067ffffffffffffffff821117156132705761326f613219565b5b80604052505050565b6000613283612d80565b905061328f8282613248565b919050565b600067ffffffffffffffff8211156132af576132ae613219565b5b6132b882612eee565b9050602081019050919050565b82818337600083830152505050565b60006132e76132e284613294565b613279565b90508281526020810184848401111561330357613302613214565b5b61330e8482856132c5565b509392505050565b600082601f83011261332b5761332a61320f565b5b813561333b8482602086016132d4565b91505092915050565b60006020828403121561335a57613359612d8a565b5b600082013567ffffffffffffffff81111561337857613377612d8f565b5b61338484828501613316565b91505092915050565b600080604083850312156133a4576133a3612d8a565b5b60006133b285828601613030565b92505060206133c385828601612e66565b9150509250929050565b600067ffffffffffffffff8211156133e8576133e7613219565b5b6133f182612eee565b9050602081019050919050565b600061341161340c846133cd565b613279565b90508281526020810184848401111561342d5761342c613214565b5b6134388482856132c5565b509392505050565b600082601f8301126134555761345461320f565b5b81356134658482602086016133fe565b91505092915050565b6000806000806080858703121561348857613487612d8a565b5b600061349687828801613030565b94505060206134a787828801613030565b93505060406134b887828801612f7b565b925050606085013567ffffffffffffffff8111156134d9576134d8612d8f565b5b6134e587828801613440565b91505092959194509250565b6000806040838503121561350857613507612d8a565b5b600061351685828601613030565b925050602061352785828601613030565b9150509250929050565b7f4f776e61626c653a2063616c6c6572206973206e6f7420746865206f776e6572600082015250565b6000613567602083612eb3565b915061357282613531565b602082019050919050565b600060208201905081810360008301526135968161355a565b9050919050565b7f4e487b7100000000000000000000000000000000000000000000000000000000600052602260045260246000fd5b600060028204905060018216806135e457607f821691505b6020821081036135f7576135f661359d565b5b50919050565b7f4552433732313a20617070726f76656420717565727920666f72206e6f6e657860008201527f697374656e7420746f6b656e0000000000000000000000000000000000000000602082015250565b6000613659602c83612eb3565b9150613664826135fd565b604082019050919050565b600060208201905081810360008301526136888161364c565b9050919050565b7f4552433732313a20617070726f76616c20746f2063757272656e74206f776e6560008201527f7200000000000000000000000000000000000000000000000000000000000000602082015250565b60006136eb602183612eb3565b91506136f68261368f565b604082019050919050565b6000602082019050818103600083015261371a816136de565b9050919050565b7f4552433732313a20617070726f76652063616c6c6572206973206e6f74206f7760008201527f6e6572206e6f7220617070726f76656420666f7220616c6c0000000000000000602082015250565b600061377d603883612eb3565b915061378882613721565b604082019050919050565b600060208201905081810360008301526137ac81613770565b9050919050565b7f4552433732313a207472616e736665722063616c6c6572206973206e6f74206f60008201527f776e6572206e6f7220617070726f766564000000000000000000000000000000602082015250565b600061380f603183612eb3565b915061381a826137b3565b604082019050919050565b6000602082019050818103600083015261383e81613802565b9050919050565b7f455243373231456e756d657261626c653a206f776e657220696e646578206f7560008201527f74206f6620626f756e6473000000000000000000000000000000000000000000602082015250565b60006138a1602b83612eb3565b91506138ac82613845565b604082019050919050565b600060208201905081810360008301526138d081613894565b9050919050565b600081905092915050565b50565b60006138f26000836138d7565b91506138fd826138e2565b600082019050919050565b6000613913826138e5565b9150819050919050565b7f4e487b7100000000000000000000000000000000000000000000000000000000600052601160045260246000fd5b600061395782612f5a565b915061396283612f5a565b925082820190508082111561397a5761397961391d565b5b92915050565b600061398b82612f5a565b915061399683612f5a565b92508282026139a481612f5a565b915082820484148315176139bb576139ba61391d565b5b5092915050565b60006139cd82612f5a565b91507fffffffffffffffffffffffffffffffffffffffffffffffffffffffffffffffff82036139ff576139fe61391d565b5b600182019050919050565b7f4e487b7100000000000000000000000000000000000000000000000000000000600052603260045260246000fd5b7f455243373231456e756d657261626c653a20676c6f62616c20696e646578206f60008201527f7574206f6620626f756e64730000000000000000000000000000000000000000602082015250565b6000613a95602c83612eb3565b9150613aa082613a39565b604082019050919050565b60006020820190508181036000830152613ac481613a88565b9050919050565b60008190508160005260206000209050919050565b60006020601f8301049050919050565b600082821b905092915050565b600060088302613b2d7fffffffffffffffffffffffffffffffffffffffffffffffffffffffffffffffff82613af0565b613b378683613af0565b95508019841693508086168417925050509392505050565b6000819050919050565b6000613b74613b6f613b6a84612f5a565b613b4f565b612f5a565b9050919050565b6000819050919050565b613b8e83613b59565b613ba2613b9a82613b7b565b848454613afd565b825550505050565b600090565b613bb7613baa565b613bc2818484613b85565b505050565b5b81811015613be657613bdb600082613baf565b600181019050613bc8565b5050565b601f821115613c2b57613bfc81613acb565b613c0584613ae0565b81016020851015613c14578190505b613c28613c2085613ae0565b830182613bc7565b50505b505050565b600082821c905092915050565b6000613c4e60001984600802613c30565b1980831691505092915050565b6000613c678383613c3d565b9150826002028217905092915050565b613c8082612ea8565b67ffffffffffffffff811115613c9957613c98613219565b5b613ca382546135cc565b613cae828285613bea565b600060209050601f831160018114613ce15760008415613ccf578287015190505b613cd98582613c5b565b865550613d41565b601f198416613cef86613acb565b60005b82811015613d1757848901518255600182019150602085019450602081019050613cf2565b86831015613d345784890151613d30601f891682613c3d565b8355505b6001600288020188555050505b505050505050565b7f4552433732313a206f776e657220717565727920666f72206e6f6e657869737460008201527f656e7420746f6b656e0000000000000000000000000000000000000000000000602082015250565b6000613da5602983612eb3565b9150613db082613d49565b604082019050919050565b60006020820190508181036000830152613dd481613d98565b9050919050565b7f4552433732313a2062616c616e636520717565727920666f7220746865207a6560008201527f726f206164647265737300000000000000000000000000000000000000000000602082015250565b6000613e37602a83612eb3565b9150613e4282613ddb565b604082019050919050565b60006020820190508181036000830152613e6681613e2a565b9050919050565b7f4552433732313a20617070726f766520746f2063616c6c657200000000000000600082015250565b6000613ea3601983612eb3565b9150613eae82613e6d565b602082019050919050565b60006020820190508181036000830152613ed281613e96565b9050919050565b7f4552433732314d657461646174613a2055524920717565727920666f72206e6f60008201527f6e6578697374656e7420746f6b656e0000000000000000000000000000000000602082015250565b6000613f35602f83612eb3565b9150613f4082613ed9565b604082019050919050565b60006020820190508181036000830152613f6481613f28565b9050919050565b600081905092915050565b6000613f8182612ea8565b613f8b8185613f6b565b9350613f9b818560208601612ec4565b80840191505092915050565b60008154613fb4816135cc565b613fbe8186613f6b565b94506001821660008114613fd95760018114613fee57614021565b60ff1983168652811515820286019350614021565b613ff785613acb565b60005b8381101561401957815481890152600182019150602081019050613ffa565b838801955050505b50505092915050565b60006140368286613f76565b91506140428285613f76565b915061404e8284613fa7565b9150819050949350505050565b7f4f776e61626c653a206e6577206f776e657220697320746865207a65726f206160008201527f6464726573730000000000000000000000000000000000000000000000000000602082015250565b60006140b7602683612eb3565b91506140c28261405b565b604082019050919050565b600060208201905081810360008301526140e6816140aa565b9050919050565b7f4552433732313a206f70657261746f7220717565727920666f72206e6f6e657860008201527f697374656e7420746f6b656e0000000000000000000000000000000000000000602082015250565b6000614149602c83612eb3565b9150614154826140ed565b604082019050919050565b600060208201905081810360008301526141788161413c565b9050919050565b7f4552433732313a207472616e73666572206f6620746f6b656e2074686174206960008201527f73206e6f74206f776e0000000000000000000000000000000000000000000000602082015250565b60006141db602983612eb3565b91506141e68261417f565b604082019050919050565b6000602082019050818103600083015261420a816141ce565b9050919050565b7f4552433732313a207472616e7366657220746f20746865207a65726f2061646460008201527f7265737300000000000000000000000000000000000000000000000000000000602082015250565b600061426d602483612eb3565b915061427882614211565b604082019050919050565b6000602082019050818103600083015261429c81614260565b9050919050565b60006142ae82612f5a565b91506142b983612f5a565b92508282039050818111156142d1576142d061391d565b5b92915050565b7f4552433732313a207472616e7366657220746f206e6f6e20455243373231526560008201527f63656976657220696d706c656d656e7465720000000000000000000000000000602082015250565b6000614333603283612eb3565b915061433e826142d7565b604082019050919050565b6000602082019050818103600083015261436281614326565b9050919050565b7f4e487b7100000000000000000000000000000000000000000000000000000000600052601260045260246000fd5b60006143a382612f5a565b91506143ae83612f5a565b9250826143be576143bd614369565b5b828204905092915050565b60006143d482612f5a565b91506143df83612f5a565b9250826143ef576143ee614369565b5b828206905092915050565b600081519050919050565b600082825260208201905092915050565b6000614421826143fa565b61442b8185614405565b935061443b818560208601612ec4565b61444481612eee565b840191505092915050565b60006080820190506144646000830187612fef565b6144716020830186612fef565b61447e6040830185613085565b81810360608301526144908184614416565b905095945050505050565b6000815190506144aa81612dc0565b92915050565b6000602082840312156144c6576144c5612d8a565b5b60006144d48482850161449b565b91505092915050565b7f4e487b7100000000000000000000000000000000000000000000000000000000600052603160045260246000fd5b7f4552433732313a206d696e7420746f20746865207a65726f2061646472657373600082015250565b6000614542602083612eb3565b915061454d8261450c565b602082019050919050565b6000602082019050818103600083015261457181614535565b9050919050565b7f4552433732313a20746f6b656e20616c7265616479206d696e74656400000000600082015250565b60006145ae601c83612eb3565b91506145b982614578565b602082019050919050565b600060208201905081810360008301526145dd816145a1565b905091905056fea2646970667358221220623e715bbbd0a128d1e8573ad06bc0c5ac242ede38c5ac8d1c73b7ec687830cc64736f6c63430008110033697066733a2f2f516d52364b6a385852776d5a445056664677654145724a6262726455326a4b4e436b654e6b73566d4645724a3150",
  "linkReferences": {},
  "deployedLinkReferences": {}
}